{
  "_format": "hh-sol-artifact-1",
  "contractName": "GOG",
  "sourceName": "contracts/GOG.sol",
  "abi": [
    {
      "inputs": [],
      "stateMutability": "nonpayable",
      "type": "constructor"
    },
    {
      "anonymous": false,
      "inputs": [
        {
          "indexed": true,
          "internalType": "address",
          "name": "owner",
          "type": "address"
        },
        {
          "indexed": true,
          "internalType": "address",
          "name": "approved",
          "type": "address"
        },
        {
          "indexed": true,
          "internalType": "uint256",
          "name": "tokenId",
          "type": "uint256"
        }
      ],
      "name": "Approval",
      "type": "event"
    },
    {
      "anonymous": false,
      "inputs": [
        {
          "indexed": true,
          "internalType": "address",
          "name": "owner",
          "type": "address"
        },
        {
          "indexed": true,
          "internalType": "address",
          "name": "operator",
          "type": "address"
        },
        {
          "indexed": false,
          "internalType": "bool",
          "name": "approved",
          "type": "bool"
        }
      ],
      "name": "ApprovalForAll",
      "type": "event"
    },
    {
      "anonymous": false,
      "inputs": [
        {
          "indexed": true,
          "internalType": "address",
          "name": "previousOwner",
          "type": "address"
        },
        {
          "indexed": true,
          "internalType": "address",
          "name": "newOwner",
          "type": "address"
        }
      ],
      "name": "OwnershipTransferred",
      "type": "event"
    },
    {
      "anonymous": false,
      "inputs": [
        {
          "indexed": true,
          "internalType": "address",
          "name": "from",
          "type": "address"
        },
        {
          "indexed": true,
          "internalType": "address",
          "name": "to",
          "type": "address"
        },
        {
          "indexed": true,
          "internalType": "uint256",
          "name": "tokenId",
          "type": "uint256"
        }
      ],
      "name": "Transfer",
      "type": "event"
    },
    {
      "inputs": [
        {
          "internalType": "address",
          "name": "to",
          "type": "address"
        },
        {
          "internalType": "uint256",
          "name": "tokenId",
          "type": "uint256"
        }
      ],
      "name": "approve",
      "outputs": [],
      "stateMutability": "nonpayable",
      "type": "function"
    },
    {
      "inputs": [
        {
          "internalType": "address",
          "name": "owner",
          "type": "address"
        }
      ],
      "name": "balanceOf",
      "outputs": [
        {
          "internalType": "uint256",
          "name": "",
          "type": "uint256"
        }
      ],
      "stateMutability": "view",
      "type": "function"
    },
    {
      "inputs": [
        {
          "internalType": "uint256",
          "name": "",
          "type": "uint256"
        }
      ],
      "name": "bgColor",
      "outputs": [
        {
          "internalType": "bytes3",
          "name": "",
          "type": "bytes3"
        }
      ],
      "stateMutability": "view",
      "type": "function"
    },
    {
      "inputs": [
        {
          "internalType": "uint256",
          "name": "",
          "type": "uint256"
        }
      ],
      "name": "color",
      "outputs": [
        {
          "internalType": "bytes3",
          "name": "",
          "type": "bytes3"
        }
      ],
      "stateMutability": "view",
      "type": "function"
    },
    {
      "inputs": [
        {
          "internalType": "uint256",
          "name": "",
          "type": "uint256"
        }
      ],
      "name": "eyeColor",
      "outputs": [
        {
          "internalType": "bytes3",
          "name": "",
          "type": "bytes3"
        }
      ],
      "stateMutability": "view",
      "type": "function"
    },
    {
      "inputs": [
        {
          "internalType": "uint256",
          "name": "tokenId",
          "type": "uint256"
        }
      ],
      "name": "getApproved",
      "outputs": [
        {
          "internalType": "address",
          "name": "",
          "type": "address"
        }
      ],
      "stateMutability": "view",
      "type": "function"
    },
    {
      "inputs": [
        {
          "internalType": "address",
          "name": "owner",
          "type": "address"
        },
        {
          "internalType": "address",
          "name": "operator",
          "type": "address"
        }
      ],
      "name": "isApprovedForAll",
      "outputs": [
        {
          "internalType": "bool",
          "name": "",
          "type": "bool"
        }
      ],
      "stateMutability": "view",
      "type": "function"
    },
    {
      "inputs": [],
      "name": "mintDeadline",
      "outputs": [
        {
          "internalType": "uint256",
          "name": "",
          "type": "uint256"
        }
      ],
      "stateMutability": "view",
      "type": "function"
    },
    {
      "inputs": [],
      "name": "mintItem",
      "outputs": [
        {
          "internalType": "uint256",
          "name": "",
          "type": "uint256"
        }
      ],
      "stateMutability": "nonpayable",
      "type": "function"
    },
    {
      "inputs": [],
      "name": "name",
      "outputs": [
        {
          "internalType": "string",
          "name": "",
          "type": "string"
        }
      ],
      "stateMutability": "view",
      "type": "function"
    },
    {
      "inputs": [],
      "name": "owner",
      "outputs": [
        {
          "internalType": "address",
          "name": "",
          "type": "address"
        }
      ],
      "stateMutability": "view",
      "type": "function"
    },
    {
      "inputs": [
        {
          "internalType": "uint256",
          "name": "tokenId",
          "type": "uint256"
        }
      ],
      "name": "ownerOf",
      "outputs": [
        {
          "internalType": "address",
          "name": "",
          "type": "address"
        }
      ],
      "stateMutability": "view",
      "type": "function"
    },
    {
      "inputs": [],
      "name": "renounceOwnership",
      "outputs": [],
      "stateMutability": "nonpayable",
      "type": "function"
    },
    {
      "inputs": [
        {
          "internalType": "address",
          "name": "from",
          "type": "address"
        },
        {
          "internalType": "address",
          "name": "to",
          "type": "address"
        },
        {
          "internalType": "uint256",
          "name": "tokenId",
          "type": "uint256"
        }
      ],
      "name": "safeTransferFrom",
      "outputs": [],
      "stateMutability": "nonpayable",
      "type": "function"
    },
    {
      "inputs": [
        {
          "internalType": "address",
          "name": "from",
          "type": "address"
        },
        {
          "internalType": "address",
          "name": "to",
          "type": "address"
        },
        {
          "internalType": "uint256",
          "name": "tokenId",
          "type": "uint256"
        },
        {
          "internalType": "bytes",
          "name": "_data",
          "type": "bytes"
        }
      ],
      "name": "safeTransferFrom",
      "outputs": [],
      "stateMutability": "nonpayable",
      "type": "function"
    },
    {
      "inputs": [
        {
          "internalType": "address",
          "name": "operator",
          "type": "address"
        },
        {
          "internalType": "bool",
          "name": "approved",
          "type": "bool"
        }
      ],
      "name": "setApprovalForAll",
      "outputs": [],
      "stateMutability": "nonpayable",
      "type": "function"
    },
    {
      "inputs": [
        {
          "internalType": "bytes4",
          "name": "interfaceId",
          "type": "bytes4"
        }
      ],
      "name": "supportsInterface",
      "outputs": [
        {
          "internalType": "bool",
          "name": "",
          "type": "bool"
        }
      ],
      "stateMutability": "view",
      "type": "function"
    },
    {
      "inputs": [],
      "name": "symbol",
      "outputs": [
        {
          "internalType": "string",
          "name": "",
          "type": "string"
        }
      ],
      "stateMutability": "view",
      "type": "function"
    },
    {
      "inputs": [
        {
          "internalType": "uint256",
          "name": "index",
          "type": "uint256"
        }
      ],
      "name": "tokenByIndex",
      "outputs": [
        {
          "internalType": "uint256",
          "name": "",
          "type": "uint256"
        }
      ],
      "stateMutability": "view",
      "type": "function"
    },
    {
      "inputs": [
        {
          "internalType": "address",
          "name": "owner",
          "type": "address"
        },
        {
          "internalType": "uint256",
          "name": "index",
          "type": "uint256"
        }
      ],
      "name": "tokenOfOwnerByIndex",
      "outputs": [
        {
          "internalType": "uint256",
          "name": "",
          "type": "uint256"
        }
      ],
      "stateMutability": "view",
      "type": "function"
    },
    {
      "inputs": [
        {
          "internalType": "uint256",
          "name": "id",
          "type": "uint256"
        }
      ],
      "name": "tokenURI",
      "outputs": [
        {
          "internalType": "string",
          "name": "",
          "type": "string"
        }
      ],
      "stateMutability": "view",
      "type": "function"
    },
    {
      "inputs": [],
      "name": "totalSupply",
      "outputs": [
        {
          "internalType": "uint256",
          "name": "",
          "type": "uint256"
        }
      ],
      "stateMutability": "view",
      "type": "function"
    },
    {
      "inputs": [
        {
          "internalType": "address",
          "name": "from",
          "type": "address"
        },
        {
          "internalType": "address",
          "name": "to",
          "type": "address"
        },
        {
          "internalType": "uint256",
          "name": "tokenId",
          "type": "uint256"
        }
      ],
      "name": "transferFrom",
      "outputs": [],
      "stateMutability": "nonpayable",
      "type": "function"
    },
    {
      "inputs": [
        {
          "internalType": "address",
          "name": "newOwner",
          "type": "address"
        }
      ],
      "name": "transferOwnership",
      "outputs": [],
      "stateMutability": "nonpayable",
      "type": "function"
    }
  ],
  "bytecode": "0x60806040526202a30042620000159190620002a3565b600f553480156200002557600080fd5b506040518060400160405280600c81526020017f476f72696c6c612047616e6700000000000000000000000000000000000000008152506040518060400160405280600381526020017f474f4700000000000000000000000000000000000000000000000000000000008152508160009080519060200190620000aa929190620001ba565b508060019080519060200190620000c3929190620001ba565b505050620000e6620000da620000ec60201b60201c565b620000f460201b60201c565b62000365565b600033905090565b6000600a60009054906101000a900473ffffffffffffffffffffffffffffffffffffffff16905081600a60006101000a81548173ffffffffffffffffffffffffffffffffffffffff021916908373ffffffffffffffffffffffffffffffffffffffff1602179055508173ffffffffffffffffffffffffffffffffffffffff168173ffffffffffffffffffffffffffffffffffffffff167f8be0079c531659141344cd1fd0a4f28419497f9722a3daafe3b4186f6b6457e060405160405180910390a35050565b828054620001c8906200032f565b90600052602060002090601f016020900481019282620001ec576000855562000238565b82601f106200020757805160ff191683800117855562000238565b8280016001018555821562000238579182015b82811115620002375782518255916020019190600101906200021a565b5b5090506200024791906200024b565b5090565b5b80821115620002665760008160009055506001016200024c565b5090565b6000819050919050565b7f4e487b7100000000000000000000000000000000000000000000000000000000600052601160045260246000fd5b6000620002b0826200026a565b9150620002bd836200026a565b9250827fffffffffffffffffffffffffffffffffffffffffffffffffffffffffffffffff03821115620002f557620002f462000274565b5b828201905092915050565b7f4e487b7100000000000000000000000000000000000000000000000000000000600052602260045260246000fd5b600060028204905060018216806200034857607f821691505b602082108114156200035f576200035e62000300565b5b50919050565b615a6380620003756000396000f3fe608060405234801561001057600080fd5b50600436106101585760003560e01c8063715018a6116100c3578063c87b56dd1161007c578063c87b56dd146103eb578063d4e28c9c1461041b578063d4e780861461044b578063e985e9c514610469578063eb93406b14610499578063f2fde38b146104b757610158565b8063715018a61461033d5780638da5cb5b1461034757806395d89b4114610365578063969e4b8d14610383578063a22cb465146103b3578063b88d4fde146103cf57610158565b80632f745c59116101155780632f745c591461023157806342842e0e146102615780634f6ccce71461027d578063608ef2e4146102ad5780636352211e146102dd57806370a082311461030d57610158565b806301ffc9a71461015d57806306fdde031461018d578063081812fc146101ab578063095ea7b3146101db57806318160ddd146101f757806323b872dd14610215575b600080fd5b61017760048036038101906101729190612d42565b6104d3565b6040516101849190612d8a565b60405180910390f35b61019561054d565b6040516101a29190612e3e565b60405180910390f35b6101c560048036038101906101c09190612e96565b6105df565b6040516101d29190612f04565b60405180910390f35b6101f560048036038101906101f09190612f4b565b610664565b005b6101ff61077c565b60405161020c9190612f9a565b60405180910390f35b61022f600480360381019061022a9190612fb5565b610789565b005b61024b60048036038101906102469190612f4b565b6107e9565b6040516102589190612f9a565b60405180910390f35b61027b60048036038101906102769190612fb5565b61088e565b005b61029760048036038101906102929190612e96565b6108ae565b6040516102a49190612f9a565b60405180910390f35b6102c760048036038101906102c29190612e96565b61091f565b6040516102d49190613043565b60405180910390f35b6102f760048036038101906102f29190612e96565b61093f565b6040516103049190612f04565b60405180910390f35b6103276004803603810190610322919061305e565b6109f1565b6040516103349190612f9a565b60405180910390f35b610345610aa9565b005b61034f610b31565b60405161035c9190612f04565b60405180910390f35b61036d610b5b565b60405161037a9190612e3e565b60405180910390f35b61039d60048036038101906103989190612e96565b610bed565b6040516103aa9190613043565b60405180910390f35b6103cd60048036038101906103c891906130b7565b610c0d565b005b6103e960048036038101906103e4919061322c565b610c23565b005b61040560048036038101906104009190612e96565b610c85565b6040516104129190612e3e565b60405180910390f35b61043560048036038101906104309190612e96565b610e4e565b6040516104429190613043565b60405180910390f35b610453610e6e565b6040516104609190612f9a565b60405180910390f35b610483600480360381019061047e91906132af565b610e74565b6040516104909190612d8a565b60405180910390f35b6104a1610f08565b6040516104ae9190612f9a565b60405180910390f35b6104d160048036038101906104cc919061305e565b61138b565b005b60007f780e9d63000000000000000000000000000000000000000000000000000000007bffffffffffffffffffffffffffffffffffffffffffffffffffffffff1916827bffffffffffffffffffffffffffffffffffffffffffffffffffffffff19161480610546575061054582611483565b5b9050919050565b60606000805461055c9061331e565b80601f01602080910402602001604051908101604052809291908181526020018280546105889061331e565b80156105d55780601f106105aa576101008083540402835291602001916105d5565b820191906000526020600020905b8154815290600101906020018083116105b857829003601f168201915b5050505050905090565b60006105ea82611565565b610629576040517f08c379a0000000000000000000000000000000000000000000000000000000008152600401610620906133c2565b60405180910390fd5b6004600083815260200190815260200160002060009054906101000a900473ffffffffffffffffffffffffffffffffffffffff169050919050565b600061066f8261093f565b90508073ffffffffffffffffffffffffffffffffffffffff168373ffffffffffffffffffffffffffffffffffffffff1614156106e0576040517f08c379a00000000000000000000000000000000000000000000000000000000081526004016106d790613454565b60405180910390fd5b8073ffffffffffffffffffffffffffffffffffffffff166106ff6115d1565b73ffffffffffffffffffffffffffffffffffffffff16148061072e575061072d816107286115d1565b610e74565b5b61076d576040517f08c379a0000000000000000000000000000000000000000000000000000000008152600401610764906134e6565b60405180910390fd5b61077783836115d9565b505050565b6000600880549050905090565b61079a6107946115d1565b82611692565b6107d9576040517f08c379a00000000000000000000000000000000000000000000000000000000081526004016107d090613578565b60405180910390fd5b6107e4838383611770565b505050565b60006107f4836109f1565b8210610835576040517f08c379a000000000000000000000000000000000000000000000000000000000815260040161082c9061360a565b60405180910390fd5b600660008473ffffffffffffffffffffffffffffffffffffffff1673ffffffffffffffffffffffffffffffffffffffff168152602001908152602001600020600083815260200190815260200160002054905092915050565b6108a983838360405180602001604052806000815250610c23565b505050565b60006108b861077c565b82106108f9576040517f08c379a00000000000000000000000000000000000000000000000000000000081526004016108f09061369c565b60405180910390fd5b6008828154811061090d5761090c6136bc565b5b90600052602060002001549050919050565b600c6020528060005260406000206000915054906101000a900460e81b81565b6000806002600084815260200190815260200160002060009054906101000a900473ffffffffffffffffffffffffffffffffffffffff169050600073ffffffffffffffffffffffffffffffffffffffff168173ffffffffffffffffffffffffffffffffffffffff1614156109e8576040517f08c379a00000000000000000000000000000000000000000000000000000000081526004016109df9061375d565b60405180910390fd5b80915050919050565b60008073ffffffffffffffffffffffffffffffffffffffff168273ffffffffffffffffffffffffffffffffffffffff161415610a62576040517f08c379a0000000000000000000000000000000000000000000000000000000008152600401610a59906137ef565b60405180910390fd5b600360008373ffffffffffffffffffffffffffffffffffffffff1673ffffffffffffffffffffffffffffffffffffffff168152602001908152602001600020549050919050565b610ab16115d1565b73ffffffffffffffffffffffffffffffffffffffff16610acf610b31565b73ffffffffffffffffffffffffffffffffffffffff1614610b25576040517f08c379a0000000000000000000000000000000000000000000000000000000008152600401610b1c9061385b565b60405180910390fd5b610b2f60006119cc565b565b6000600a60009054906101000a900473ffffffffffffffffffffffffffffffffffffffff16905090565b606060018054610b6a9061331e565b80601f0160208091040260200160405190810160405280929190818152602001828054610b969061331e565b8015610be35780601f10610bb857610100808354040283529160200191610be3565b820191906000526020600020905b815481529060010190602001808311610bc657829003601f168201915b5050505050905090565b600d6020528060005260406000206000915054906101000a900460e81b81565b610c1f610c186115d1565b8383611a92565b5050565b610c34610c2e6115d1565b83611692565b610c73576040517f08c379a0000000000000000000000000000000000000000000000000000000008152600401610c6a90613578565b60405180910390fd5b610c7f84848484611bff565b50505050565b6060610c9082611565565b610ccf576040517f08c379a0000000000000000000000000000000000000000000000000000000008152600401610cc6906138c7565b60405180910390fd5b6000610cda83611c5b565b604051602001610cea919061396f565b60405160208183030381529060405290506000604051602001610d0c906139dd565b60405160208183030381529060405290506000610d30610d2b86611dbc565b611df3565b9050610e258383610d80600d60008a815260200190815260200160002060009054906101000a900460e81b7cffffffffffffffffffffffffffffffffffffffffffffffffffffffffff1916611f6c565b610dc9600c60008b815260200190815260200160002060009054906101000a900460e81b7cffffffffffffffffffffffffffffffffffffffffffffffffffffffffff1916611f6c565b610dfb6014610dd78c61093f565b73ffffffffffffffffffffffffffffffffffffffff1661216390919063ffffffff16565b86604051602001610e1196959493929190613c9e565b604051602081830303815290604052611df3565b604051602001610e359190613d9a565b6040516020818303038152906040529350505050919050565b600e6020528060005260406000206000915054906101000a900460e81b81565b600f5481565b6000600560008473ffffffffffffffffffffffffffffffffffffffff1673ffffffffffffffffffffffffffffffffffffffff16815260200190815260200160002060008373ffffffffffffffffffffffffffffffffffffffff1673ffffffffffffffffffffffffffffffffffffffff16815260200190815260200160002060009054906101000a900460ff16905092915050565b6000600f544210610f4e576040517f08c379a0000000000000000000000000000000000000000000000000000000008152600401610f4590613e08565b60405180910390fd5b610f58600b61235c565b6000610f64600b612372565b9050610f703382612380565b6000600143610f7f9190613e57565b40333084604051602001610f969493929190613f1f565b604051602081830303815290604052805190602001209050601081600260208110610fc457610fc36136bc565b5b1a60f81b7effffffffffffffffffffffffffffffffffffffffffffffffffffffffffffff19167cffffffffffffffffffffffffffffffffffffffffffffffffffffffffff1916901c600882600160208110611022576110216136bc565b5b1a60f81b7effffffffffffffffffffffffffffffffffffffffffffffffffffffffffffff19167dffffffffffffffffffffffffffffffffffffffffffffffffffffffffffff1916901c8260006020811061107f5761107e6136bc565b5b1a60f81b7effffffffffffffffffffffffffffffffffffffffffffffffffffffffffffff1916177dffffffffffffffffffffffffffffffffffffffffffffffffffffffffffff191617600d600084815260200190815260200160002060006101000a81548162ffffff021916908360e81c021790555060108160056020811061110b5761110a6136bc565b5b1a60f81b7effffffffffffffffffffffffffffffffffffffffffffffffffffffffffffff19167cffffffffffffffffffffffffffffffffffffffffffffffffffffffffff1916901c600882600460208110611169576111686136bc565b5b1a60f81b7effffffffffffffffffffffffffffffffffffffffffffffffffffffffffffff19167dffffffffffffffffffffffffffffffffffffffffffffffffffffffffffff1916901c826003602081106111c6576111c56136bc565b5b1a60f81b7effffffffffffffffffffffffffffffffffffffffffffffffffffffffffffff1916177dffffffffffffffffffffffffffffffffffffffffffffffffffffffffffff191617600c600084815260200190815260200160002060006101000a81548162ffffff021916908360e81c0217905550601081600760208110611252576112516136bc565b5b1a60f81b7effffffffffffffffffffffffffffffffffffffffffffffffffffffffffffff19167cffffffffffffffffffffffffffffffffffffffffffffffffffffffffff1916901c6008826007602081106112b0576112af6136bc565b5b1a60f81b7effffffffffffffffffffffffffffffffffffffffffffffffffffffffffffff19167dffffffffffffffffffffffffffffffffffffffffffffffffffffffffffff1916901c8260066020811061130d5761130c6136bc565b5b1a60f81b7effffffffffffffffffffffffffffffffffffffffffffffffffffffffffffff1916177dffffffffffffffffffffffffffffffffffffffffffffffffffffffffffff191617600e600084815260200190815260200160002060006101000a81548162ffffff021916908360e81c0217905550819250505090565b6113936115d1565b73ffffffffffffffffffffffffffffffffffffffff166113b1610b31565b73ffffffffffffffffffffffffffffffffffffffff1614611407576040517f08c379a00000000000000000000000000000000000000000000000000000000081526004016113fe9061385b565b60405180910390fd5b600073ffffffffffffffffffffffffffffffffffffffff168173ffffffffffffffffffffffffffffffffffffffff161415611477576040517f08c379a000000000000000000000000000000000000000000000000000000000815260040161146e90613fdf565b60405180910390fd5b611480816119cc565b50565b60007f80ac58cd000000000000000000000000000000000000000000000000000000007bffffffffffffffffffffffffffffffffffffffffffffffffffffffff1916827bffffffffffffffffffffffffffffffffffffffffffffffffffffffff1916148061154e57507f5b5e139f000000000000000000000000000000000000000000000000000000007bffffffffffffffffffffffffffffffffffffffffffffffffffffffff1916827bffffffffffffffffffffffffffffffffffffffffffffffffffffffff1916145b8061155e575061155d8261254e565b5b9050919050565b60008073ffffffffffffffffffffffffffffffffffffffff166002600084815260200190815260200160002060009054906101000a900473ffffffffffffffffffffffffffffffffffffffff1673ffffffffffffffffffffffffffffffffffffffff1614159050919050565b600033905090565b816004600083815260200190815260200160002060006101000a81548173ffffffffffffffffffffffffffffffffffffffff021916908373ffffffffffffffffffffffffffffffffffffffff160217905550808273ffffffffffffffffffffffffffffffffffffffff1661164c8361093f565b73ffffffffffffffffffffffffffffffffffffffff167f8c5be1e5ebec7d5bd14f71427d1e84f3dd0314c0f7b2291e5b200ac8c7c3b92560405160405180910390a45050565b600061169d82611565565b6116dc576040517f08c379a00000000000000000000000000000000000000000000000000000000081526004016116d390614071565b60405180910390fd5b60006116e78361093f565b90508073ffffffffffffffffffffffffffffffffffffffff168473ffffffffffffffffffffffffffffffffffffffff16148061175657508373ffffffffffffffffffffffffffffffffffffffff1661173e846105df565b73ffffffffffffffffffffffffffffffffffffffff16145b8061176757506117668185610e74565b5b91505092915050565b8273ffffffffffffffffffffffffffffffffffffffff166117908261093f565b73ffffffffffffffffffffffffffffffffffffffff16146117e6576040517f08c379a00000000000000000000000000000000000000000000000000000000081526004016117dd90614103565b60405180910390fd5b600073ffffffffffffffffffffffffffffffffffffffff168273ffffffffffffffffffffffffffffffffffffffff161415611856576040517f08c379a000000000000000000000000000000000000000000000000000000000815260040161184d90614195565b60405180910390fd5b6118618383836125b8565b61186c6000826115d9565b6001600360008573ffffffffffffffffffffffffffffffffffffffff1673ffffffffffffffffffffffffffffffffffffffff16815260200190815260200160002060008282546118bc9190613e57565b925050819055506001600360008473ffffffffffffffffffffffffffffffffffffffff1673ffffffffffffffffffffffffffffffffffffffff168152602001908152602001600020600082825461191391906141b5565b92505081905550816002600083815260200190815260200160002060006101000a81548173ffffffffffffffffffffffffffffffffffffffff021916908373ffffffffffffffffffffffffffffffffffffffff160217905550808273ffffffffffffffffffffffffffffffffffffffff168473ffffffffffffffffffffffffffffffffffffffff167fddf252ad1be2c89b69c2b068fc378daa952ba7f163c4a11628f55a4df523b3ef60405160405180910390a4505050565b6000600a60009054906101000a900473ffffffffffffffffffffffffffffffffffffffff16905081600a60006101000a81548173ffffffffffffffffffffffffffffffffffffffff021916908373ffffffffffffffffffffffffffffffffffffffff1602179055508173ffffffffffffffffffffffffffffffffffffffff168173ffffffffffffffffffffffffffffffffffffffff167f8be0079c531659141344cd1fd0a4f28419497f9722a3daafe3b4186f6b6457e060405160405180910390a35050565b8173ffffffffffffffffffffffffffffffffffffffff168373ffffffffffffffffffffffffffffffffffffffff161415611b01576040517f08c379a0000000000000000000000000000000000000000000000000000000008152600401611af890614257565b60405180910390fd5b80600560008573ffffffffffffffffffffffffffffffffffffffff1673ffffffffffffffffffffffffffffffffffffffff16815260200190815260200160002060008473ffffffffffffffffffffffffffffffffffffffff1673ffffffffffffffffffffffffffffffffffffffff16815260200190815260200160002060006101000a81548160ff0219169083151502179055508173ffffffffffffffffffffffffffffffffffffffff168373ffffffffffffffffffffffffffffffffffffffff167f17307eab39ab6107e8899845ad3d59bd9653f200f220920489ca2b5937696c3183604051611bf29190612d8a565b60405180910390a3505050565b611c0a848484611770565b611c16848484846126cc565b611c55576040517f08c379a0000000000000000000000000000000000000000000000000000000008152600401611c4c906142e9565b60405180910390fd5b50505050565b60606000821415611ca3576040518060400160405280600181526020017f30000000000000000000000000000000000000000000000000000000000000008152509050611db7565b600082905060005b60008214611cd5578080611cbe90614309565b915050600a82611cce9190614381565b9150611cab565b60008167ffffffffffffffff811115611cf157611cf0613101565b5b6040519080825280601f01601f191660200182016040528015611d235781602001600182028036833780820191505090505b5090505b60008514611db057600182611d3c9190613e57565b9150600a85611d4b91906143b2565b6030611d5791906141b5565b60f81b818381518110611d6d57611d6c6136bc565b5b60200101907effffffffffffffffffffffffffffffffffffffffffffffffffffffffffffff1916908160001a905350600a85611da99190614381565b9450611d27565b8093505050505b919050565b60606000611dc983612863565b604051602001611dd991906144ed565b604051602081830303815290604052905080915050919050565b6060600082511415611e1657604051806020016040528060008152509050611f67565b60006040518060600160405280604081526020016159ee6040913990506000600360028551611e4591906141b5565b611e4f9190614381565b6004611e5b919061451a565b90506000602082611e6c91906141b5565b67ffffffffffffffff811115611e8557611e84613101565b5b6040519080825280601f01601f191660200182016040528015611eb75781602001600182028036833780820191505090505b509050818152600183018586518101602084015b81831015611f26576003830192508251603f8160121c168501518253600182019150603f81600c1c168501518253600182019150603f8160061c168501518253600182019150603f8116850151825360018201915050611ecb565b600389510660018114611f405760028114611f5057611f5b565b613d3d60f01b6002830352611f5b565b603d60f81b60018303525b50505050508093505050505b919050565b60606000600667ffffffffffffffff811115611f8b57611f8a613101565b5b6040519080825280601f01601f191660200182016040528015611fbd5781602001600182028036833780820191505090505b50905060005b6003811015612159577f3031323334353637383961626364656600000000000000000000000000000000600f858360038110612002576120016136bc565b5b1a60f81b60f81c1660ff166010811061201e5761201d6136bc565b5b1a60f81b826001600284612032919061451a565b61203c91906141b5565b8151811061204d5761204c6136bc565b5b60200101907effffffffffffffffffffffffffffffffffffffffffffffffffffffffffffff1916908160001a9053507f3031323334353637383961626364656600000000000000000000000000000000600f60048684600381106120b4576120b36136bc565b5b1a60f81b7effffffffffffffffffffffffffffffffffffffffffffffffffffffffffffff1916901c60f81c1660ff16601081106120f4576120f36136bc565b5b1a60f81b82600283612106919061451a565b81518110612117576121166136bc565b5b60200101907effffffffffffffffffffffffffffffffffffffffffffffffffffffffffffff1916908160001a905350808061215190614309565b915050611fc3565b5080915050919050565b606060006002836002612176919061451a565b61218091906141b5565b67ffffffffffffffff81111561219957612198613101565b5b6040519080825280601f01601f1916602001820160405280156121cb5781602001600182028036833780820191505090505b5090507f300000000000000000000000000000000000000000000000000000000000000081600081518110612203576122026136bc565b5b60200101907effffffffffffffffffffffffffffffffffffffffffffffffffffffffffffff1916908160001a9053507f780000000000000000000000000000000000000000000000000000000000000081600181518110612267576122666136bc565b5b60200101907effffffffffffffffffffffffffffffffffffffffffffffffffffffffffffff1916908160001a905350600060018460026122a7919061451a565b6122b191906141b5565b90505b6001811115612351577f3031323334353637383961626364656600000000000000000000000000000000600f8616601081106122f3576122f26136bc565b5b1a60f81b82828151811061230a576123096136bc565b5b60200101907effffffffffffffffffffffffffffffffffffffffffffffffffffffffffffff1916908160001a905350600485901c94508061234a90614574565b90506122b4565b508091505092915050565b6001816000016000828254019250508190555050565b600081600001549050919050565b600073ffffffffffffffffffffffffffffffffffffffff168273ffffffffffffffffffffffffffffffffffffffff1614156123f0576040517f08c379a00000000000000000000000000000000000000000000000000000000081526004016123e7906145ea565b60405180910390fd5b6123f981611565565b15612439576040517f08c379a000000000000000000000000000000000000000000000000000000000815260040161243090614656565b60405180910390fd5b612445600083836125b8565b6001600360008473ffffffffffffffffffffffffffffffffffffffff1673ffffffffffffffffffffffffffffffffffffffff168152602001908152602001600020600082825461249591906141b5565b92505081905550816002600083815260200190815260200160002060006101000a81548173ffffffffffffffffffffffffffffffffffffffff021916908373ffffffffffffffffffffffffffffffffffffffff160217905550808273ffffffffffffffffffffffffffffffffffffffff16600073ffffffffffffffffffffffffffffffffffffffff167fddf252ad1be2c89b69c2b068fc378daa952ba7f163c4a11628f55a4df523b3ef60405160405180910390a45050565b60007f01ffc9a7000000000000000000000000000000000000000000000000000000007bffffffffffffffffffffffffffffffffffffffffffffffffffffffff1916827bffffffffffffffffffffffffffffffffffffffffffffffffffffffff1916149050919050565b6125c38383836129b8565b600073ffffffffffffffffffffffffffffffffffffffff168373ffffffffffffffffffffffffffffffffffffffff16141561260657612601816129bd565b612645565b8173ffffffffffffffffffffffffffffffffffffffff168373ffffffffffffffffffffffffffffffffffffffff1614612644576126438382612a06565b5b5b600073ffffffffffffffffffffffffffffffffffffffff168273ffffffffffffffffffffffffffffffffffffffff1614156126885761268381612b73565b6126c7565b8273ffffffffffffffffffffffffffffffffffffffff168273ffffffffffffffffffffffffffffffffffffffff16146126c6576126c58282612c44565b5b5b505050565b60006126ed8473ffffffffffffffffffffffffffffffffffffffff16612cc3565b15612856578373ffffffffffffffffffffffffffffffffffffffff1663150b7a026127166115d1565b8786866040518563ffffffff1660e01b815260040161273894939291906146cb565b602060405180830381600087803b15801561275257600080fd5b505af192505050801561278357506040513d601f19601f82011682018060405250810190612780919061472c565b60015b612806573d80600081146127b3576040519150601f19603f3d011682016040523d82523d6000602084013e6127b8565b606091505b506000815114156127fe576040517f08c379a00000000000000000000000000000000000000000000000000000000081526004016127f5906142e9565b60405180910390fd5b805181602001fd5b63150b7a0260e01b7bffffffffffffffffffffffffffffffffffffffffffffffffffffffff1916817bffffffffffffffffffffffffffffffffffffffffffffffffffffffff19161491505061285b565b600190505b949350505050565b606060006128b0600c600085815260200190815260200160002060009054906101000a900460e81b7cffffffffffffffffffffffffffffffffffffffffffffffffffffffffff1916611f6c565b6128f9600e600086815260200190815260200160002060009054906101000a900460e81b7cffffffffffffffffffffffffffffffffffffffffffffffffffffffffff1916611f6c565b612942600d600087815260200190815260200160002060009054906101000a900460e81b7cffffffffffffffffffffffffffffffffffffffffffffffffffffffffff1916611f6c565b61298b600d600088815260200190815260200160002060009054906101000a900460e81b7cffffffffffffffffffffffffffffffffffffffffffffffffffffffffff1916611f6c565b60405160200161299e94939291906158ba565b604051602081830303815290604052905080915050919050565b505050565b6008805490506009600083815260200190815260200160002081905550600881908060018154018082558091505060019003906000526020600020016000909190919091505550565b60006001612a13846109f1565b612a1d9190613e57565b9050600060076000848152602001908152602001600020549050818114612b02576000600660008673ffffffffffffffffffffffffffffffffffffffff1673ffffffffffffffffffffffffffffffffffffffff168152602001908152602001600020600084815260200190815260200160002054905080600660008773ffffffffffffffffffffffffffffffffffffffff1673ffffffffffffffffffffffffffffffffffffffff168152602001908152602001600020600084815260200190815260200160002081905550816007600083815260200190815260200160002081905550505b6007600084815260200190815260200160002060009055600660008573ffffffffffffffffffffffffffffffffffffffff1673ffffffffffffffffffffffffffffffffffffffff16815260200190815260200160002060008381526020019081526020016000206000905550505050565b60006001600880549050612b879190613e57565b9050600060096000848152602001908152602001600020549050600060088381548110612bb757612bb66136bc565b5b906000526020600020015490508060088381548110612bd957612bd86136bc565b5b906000526020600020018190555081600960008381526020019081526020016000208190555060096000858152602001908152602001600020600090556008805480612c2857612c276159be565b5b6001900381819060005260206000200160009055905550505050565b6000612c4f836109f1565b905081600660008573ffffffffffffffffffffffffffffffffffffffff1673ffffffffffffffffffffffffffffffffffffffff168152602001908152602001600020600083815260200190815260200160002081905550806007600084815260200190815260200160002081905550505050565b600080823b905060008111915050919050565b6000604051905090565b600080fd5b600080fd5b60007fffffffff0000000000000000000000000000000000000000000000000000000082169050919050565b612d1f81612cea565b8114612d2a57600080fd5b50565b600081359050612d3c81612d16565b92915050565b600060208284031215612d5857612d57612ce0565b5b6000612d6684828501612d2d565b91505092915050565b60008115159050919050565b612d8481612d6f565b82525050565b6000602082019050612d9f6000830184612d7b565b92915050565b600081519050919050565b600082825260208201905092915050565b60005b83811015612ddf578082015181840152602081019050612dc4565b83811115612dee576000848401525b50505050565b6000601f19601f8301169050919050565b6000612e1082612da5565b612e1a8185612db0565b9350612e2a818560208601612dc1565b612e3381612df4565b840191505092915050565b60006020820190508181036000830152612e588184612e05565b905092915050565b6000819050919050565b612e7381612e60565b8114612e7e57600080fd5b50565b600081359050612e9081612e6a565b92915050565b600060208284031215612eac57612eab612ce0565b5b6000612eba84828501612e81565b91505092915050565b600073ffffffffffffffffffffffffffffffffffffffff82169050919050565b6000612eee82612ec3565b9050919050565b612efe81612ee3565b82525050565b6000602082019050612f196000830184612ef5565b92915050565b612f2881612ee3565b8114612f3357600080fd5b50565b600081359050612f4581612f1f565b92915050565b60008060408385031215612f6257612f61612ce0565b5b6000612f7085828601612f36565b9250506020612f8185828601612e81565b9150509250929050565b612f9481612e60565b82525050565b6000602082019050612faf6000830184612f8b565b92915050565b600080600060608486031215612fce57612fcd612ce0565b5b6000612fdc86828701612f36565b9350506020612fed86828701612f36565b9250506040612ffe86828701612e81565b9150509250925092565b60007fffffff000000000000000000000000000000000000000000000000000000000082169050919050565b61303d81613008565b82525050565b60006020820190506130586000830184613034565b92915050565b60006020828403121561307457613073612ce0565b5b600061308284828501612f36565b91505092915050565b61309481612d6f565b811461309f57600080fd5b50565b6000813590506130b18161308b565b92915050565b600080604083850312156130ce576130cd612ce0565b5b60006130dc85828601612f36565b92505060206130ed858286016130a2565b9150509250929050565b600080fd5b600080fd5b7f4e487b7100000000000000000000000000000000000000000000000000000000600052604160045260246000fd5b61313982612df4565b810181811067ffffffffffffffff8211171561315857613157613101565b5b80604052505050565b600061316b612cd6565b90506131778282613130565b919050565b600067ffffffffffffffff82111561319757613196613101565b5b6131a082612df4565b9050602081019050919050565b82818337600083830152505050565b60006131cf6131ca8461317c565b613161565b9050828152602081018484840111156131eb576131ea6130fc565b5b6131f68482856131ad565b509392505050565b600082601f830112613213576132126130f7565b5b81356132238482602086016131bc565b91505092915050565b6000806000806080858703121561324657613245612ce0565b5b600061325487828801612f36565b945050602061326587828801612f36565b935050604061327687828801612e81565b925050606085013567ffffffffffffffff81111561329757613296612ce5565b5b6132a3878288016131fe565b91505092959194509250565b600080604083850312156132c6576132c5612ce0565b5b60006132d485828601612f36565b92505060206132e585828601612f36565b9150509250929050565b7f4e487b7100000000000000000000000000000000000000000000000000000000600052602260045260246000fd5b6000600282049050600182168061333657607f821691505b6020821081141561334a576133496132ef565b5b50919050565b7f4552433732313a20617070726f76656420717565727920666f72206e6f6e657860008201527f697374656e7420746f6b656e0000000000000000000000000000000000000000602082015250565b60006133ac602c83612db0565b91506133b782613350565b604082019050919050565b600060208201905081810360008301526133db8161339f565b9050919050565b7f4552433732313a20617070726f76616c20746f2063757272656e74206f776e6560008201527f7200000000000000000000000000000000000000000000000000000000000000602082015250565b600061343e602183612db0565b9150613449826133e2565b604082019050919050565b6000602082019050818103600083015261346d81613431565b9050919050565b7f4552433732313a20617070726f76652063616c6c6572206973206e6f74206f7760008201527f6e6572206e6f7220617070726f76656420666f7220616c6c0000000000000000602082015250565b60006134d0603883612db0565b91506134db82613474565b604082019050919050565b600060208201905081810360008301526134ff816134c3565b9050919050565b7f4552433732313a207472616e736665722063616c6c6572206973206e6f74206f60008201527f776e6572206e6f7220617070726f766564000000000000000000000000000000602082015250565b6000613562603183612db0565b915061356d82613506565b604082019050919050565b6000602082019050818103600083015261359181613555565b9050919050565b7f455243373231456e756d657261626c653a206f776e657220696e646578206f7560008201527f74206f6620626f756e6473000000000000000000000000000000000000000000602082015250565b60006135f4602b83612db0565b91506135ff82613598565b604082019050919050565b60006020820190508181036000830152613623816135e7565b9050919050565b7f455243373231456e756d657261626c653a20676c6f62616c20696e646578206f60008201527f7574206f6620626f756e64730000000000000000000000000000000000000000602082015250565b6000613686602c83612db0565b91506136918261362a565b604082019050919050565b600060208201905081810360008301526136b581613679565b9050919050565b7f4e487b7100000000000000000000000000000000000000000000000000000000600052603260045260246000fd5b7f4552433732313a206f776e657220717565727920666f72206e6f6e657869737460008201527f656e7420746f6b656e0000000000000000000000000000000000000000000000602082015250565b6000613747602983612db0565b9150613752826136eb565b604082019050919050565b600060208201905081810360008301526137768161373a565b9050919050565b7f4552433732313a2062616c616e636520717565727920666f7220746865207a6560008201527f726f206164647265737300000000000000000000000000000000000000000000602082015250565b60006137d9602a83612db0565b91506137e48261377d565b604082019050919050565b60006020820190508181036000830152613808816137cc565b9050919050565b7f4f776e61626c653a2063616c6c6572206973206e6f7420746865206f776e6572600082015250565b6000613845602083612db0565b91506138508261380f565b602082019050919050565b6000602082019050818103600083015261387481613838565b9050919050565b7f6e6f742065786973740000000000000000000000000000000000000000000000600082015250565b60006138b1600983612db0565b91506138bc8261387b565b602082019050919050565b600060208201905081810360008301526138e0816138a4565b9050919050565b600081905092915050565b7f476f72696c6c6120230000000000000000000000000000000000000000000000600082015250565b60006139286009836138e7565b9150613933826138f2565b600982019050919050565b600061394982612da5565b61395381856138e7565b9350613963818560208601612dc1565b80840191505092915050565b600061397a8261391b565b9150613986828461393e565b915081905092915050565b7f476f72696c6c612047616e670000000000000000000000000000000000000000600082015250565b60006139c7600c836138e7565b91506139d282613991565b600c82019050919050565b60006139e8826139ba565b9150819050919050565b7f7b226e616d65223a220000000000000000000000000000000000000000000000600082015250565b6000613a286009836138e7565b9150613a33826139f2565b600982019050919050565b7f222c20226465736372697074696f6e223a220000000000000000000000000000600082015250565b6000613a746012836138e7565b9150613a7f82613a3e565b601282019050919050565b7f222c202261747472696275746573223a205b7b2274726169745f74797065223a60008201527f2022657965222c202276616c7565223a20222300000000000000000000000000602082015250565b6000613ae66033836138e7565b9150613af182613a8a565b603382019050919050565b7f227d2c7b2274726169745f74797065223a20226261636b67726f7564222c202260008201527f76616c7565223a20222300000000000000000000000000000000000000000000602082015250565b6000613b58602a836138e7565b9150613b6382613afc565b602a82019050919050565b7f227d5d2c20226f776e6572223a22000000000000000000000000000000000000600082015250565b6000613ba4600e836138e7565b9150613baf82613b6e565b600e82019050919050565b7f222c2022696d616765223a202200000000000000000000000000000000000000600082015250565b6000613bf0600d836138e7565b9150613bfb82613bba565b600d82019050919050565b7f646174613a696d6167652f7376672b786d6c3b6261736536342c000000000000600082015250565b6000613c3c601a836138e7565b9150613c4782613c06565b601a82019050919050565b7f227d000000000000000000000000000000000000000000000000000000000000600082015250565b6000613c886002836138e7565b9150613c9382613c52565b600282019050919050565b6000613ca982613a1b565b9150613cb5828961393e565b9150613cc082613a67565b9150613ccc828861393e565b9150613cd782613ad9565b9150613ce3828761393e565b9150613cee82613b4b565b9150613cfa828661393e565b9150613d0582613b97565b9150613d11828561393e565b9150613d1c82613be3565b9150613d2782613c2f565b9150613d33828461393e565b9150613d3e82613c7b565b9150819050979650505050505050565b7f646174613a6170706c69636174696f6e2f6a736f6e3b6261736536342c000000600082015250565b6000613d84601d836138e7565b9150613d8f82613d4e565b601d82019050919050565b6000613da582613d77565b9150613db1828461393e565b915081905092915050565b7f444f4e45204d494e54494e470000000000000000000000000000000000000000600082015250565b6000613df2600c83612db0565b9150613dfd82613dbc565b602082019050919050565b60006020820190508181036000830152613e2181613de5565b9050919050565b7f4e487b7100000000000000000000000000000000000000000000000000000000600052601160045260246000fd5b6000613e6282612e60565b9150613e6d83612e60565b925082821015613e8057613e7f613e28565b5b828203905092915050565b6000819050919050565b6000819050919050565b613eb0613eab82613e8b565b613e95565b82525050565b60008160601b9050919050565b6000613ece82613eb6565b9050919050565b6000613ee082613ec3565b9050919050565b613ef8613ef382612ee3565b613ed5565b82525050565b6000819050919050565b613f19613f1482612e60565b613efe565b82525050565b6000613f2b8287613e9f565b602082019150613f3b8286613ee7565b601482019150613f4b8285613ee7565b601482019150613f5b8284613f08565b60208201915081905095945050505050565b7f4f776e61626c653a206e6577206f776e657220697320746865207a65726f206160008201527f6464726573730000000000000000000000000000000000000000000000000000602082015250565b6000613fc9602683612db0565b9150613fd482613f6d565b604082019050919050565b60006020820190508181036000830152613ff881613fbc565b9050919050565b7f4552433732313a206f70657261746f7220717565727920666f72206e6f6e657860008201527f697374656e7420746f6b656e0000000000000000000000000000000000000000602082015250565b600061405b602c83612db0565b915061406682613fff565b604082019050919050565b6000602082019050818103600083015261408a8161404e565b9050919050565b7f4552433732313a207472616e73666572206f6620746f6b656e2074686174206960008201527f73206e6f74206f776e0000000000000000000000000000000000000000000000602082015250565b60006140ed602983612db0565b91506140f882614091565b604082019050919050565b6000602082019050818103600083015261411c816140e0565b9050919050565b7f4552433732313a207472616e7366657220746f20746865207a65726f2061646460008201527f7265737300000000000000000000000000000000000000000000000000000000602082015250565b600061417f602483612db0565b915061418a82614123565b604082019050919050565b600060208201905081810360008301526141ae81614172565b9050919050565b60006141c082612e60565b91506141cb83612e60565b9250827fffffffffffffffffffffffffffffffffffffffffffffffffffffffffffffffff03821115614200576141ff613e28565b5b828201905092915050565b7f4552433732313a20617070726f766520746f2063616c6c657200000000000000600082015250565b6000614241601983612db0565b915061424c8261420b565b602082019050919050565b6000602082019050818103600083015261427081614234565b9050919050565b7f4552433732313a207472616e7366657220746f206e6f6e20455243373231526560008201527f63656976657220696d706c656d656e7465720000000000000000000000000000602082015250565b60006142d3603283612db0565b91506142de82614277565b604082019050919050565b60006020820190508181036000830152614302816142c6565b9050919050565b600061431482612e60565b91507fffffffffffffffffffffffffffffffffffffffffffffffffffffffffffffffff82141561434757614346613e28565b5b600182019050919050565b7f4e487b7100000000000000000000000000000000000000000000000000000000600052601260045260246000fd5b600061438c82612e60565b915061439783612e60565b9250826143a7576143a6614352565b5b828204905092915050565b60006143bd82612e60565b91506143c883612e60565b9250826143d8576143d7614352565b5b828206905092915050565b7f3c7376672077696474683d2235303022206865696768743d223530302220766960008201527f6577426f783d223020302032303020323030222066696c6c3d226e6f6e65222060208201527f786d6c6e733d22687474703a2f2f7777772e77332e6f72672f323030302f737660408201527f67223e0000000000000000000000000000000000000000000000000000000000606082015250565b600061448b6063836138e7565b9150614496826143e3565b606382019050919050565b7f3c2f7376673e0000000000000000000000000000000000000000000000000000600082015250565b60006144d76006836138e7565b91506144e2826144a1565b600682019050919050565b60006144f88261447e565b9150614504828461393e565b915061450f826144ca565b915081905092915050565b600061452582612e60565b915061453083612e60565b9250817fffffffffffffffffffffffffffffffffffffffffffffffffffffffffffffffff048311821515161561456957614568613e28565b5b828202905092915050565b600061457f82612e60565b9150600082141561459357614592613e28565b5b600182039050919050565b7f4552433732313a206d696e7420746f20746865207a65726f2061646472657373600082015250565b60006145d4602083612db0565b91506145df8261459e565b602082019050919050565b60006020820190508181036000830152614603816145c7565b9050919050565b7f4552433732313a20746f6b656e20616c7265616479206d696e74656400000000600082015250565b6000614640601c83612db0565b915061464b8261460a565b602082019050919050565b6000602082019050818103600083015261466f81614633565b9050919050565b600081519050919050565b600082825260208201905092915050565b600061469d82614676565b6146a78185614681565b93506146b7818560208601612dc1565b6146c081612df4565b840191505092915050565b60006080820190506146e06000830187612ef5565b6146ed6020830186612ef5565b6146fa6040830185612f8b565b818103606083015261470c8184614692565b905095945050505050565b60008151905061472681612d16565b92915050565b60006020828403121561474257614741612ce0565b5b600061475084828501614717565b91505092915050565b7f3c726563742077696474683d2235303022206865696768743d2235303022206660008201527f696c6c3d22230000000000000000000000000000000000000000000000000000602082015250565b60006147b56026836138e7565b91506147c082614759565b602682019050919050565b7f222f3e3c636972636c652063783d223531222063793d223130312220723d223160008201527f36222066696c6c3d2223433443344334222f3e00000000000000000000000000602082015250565b60006148276033836138e7565b9150614832826147cb565b603382019050919050565b7f3c67207374796c653d226d69782d626c656e642d6d6f64653a6d756c7469706c60008201527f79223e3c636972636c652063783d223531222063793d223130312220723d223160208201527f32222066696c6c3d2223433443344334222f3e3c2f673e000000000000000000604082015250565b60006148bf6057836138e7565b91506148ca8261483d565b605782019050919050565b7f3c636972636c652063783d22313439222063793d223130312220723d2231362260008201527f2066696c6c3d2223433443344334222f3e000000000000000000000000000000602082015250565b60006149316031836138e7565b915061493c826148d5565b603182019050919050565b7f3c67207374796c653d226d69782d626c656e642d6d6f64653a6d756c7469706c60008201527f79223e3c636972636c652063783d22313439222063793d223130312220723d2260208201527f3132222066696c6c3d2223433443344334222f3e3c2f673e0000000000000000604082015250565b60006149c96058836138e7565b91506149d482614947565b605882019050919050565b7f3c7061746820643d224d39372e383432372034302e303631324339372e38303060008201527f312033372e3836362039392e333732342033362e30343832203130312e33353560208201527f2033362e30303039433130332e3333372033352e39353337203130342e39373960408201527f2033372e36393439203130352e3032312033392e383930314c3130352e30383260608201527f2034332e303035334c3130362e3033352034302e31303435433130362e37313360808201527f2033382e30343132203130382e3737342033362e39373734203131302e36333760a08201527f2033372e37323834433131322e352033382e34373933203131332e343631203460c08201527f302e37363037203131322e3738332034322e3832344c3130392e35303820353260e08201527f2e37383632433130382e38332035342e38343935203130362e37372035352e396101008201527f313333203130342e3930372035352e31363233433130342e33312035342e39326101208201527f3139203130332e3830362035342e35323436203130332e3431392035342e30326101408201527f3738433130322e3931362035342e33343636203130322e3333362035342e35336101608201527f3437203130312e3731352035342e35343935433130312e3230372035342e35366101808201527f3136203130302e3732312035342e34353631203130302e3237392035342e32356101a08201527f35364339392e393438312035352e333736392039392e3137322035362e3332346101c08201527f342039382e303933342035362e373539324339362e323330322035372e3531306101e08201527f312039342e31372035362e343436332039332e343931392035342e3338334c396102008201527f302e323137352034342e343230384338392e353339332034322e3335373520396102208201527f302e352034302e303736312039322e333633322033392e333235324339342e326102408201527f3236342033382e353734322039362e323836362033392e3633382039362e39366102608201527f34372034312e373031334c39372e393331382034342e363433374c39372e38346102808201527f32372034302e303631325a222066696c6c3d2223333933393339222f3e0000006102a082015250565b6000614d426102bd836138e7565b9150614d4d826149df565b6102bd82019050919050565b7f3c7061746820643d224d35332e333039392039332e313937324335322e30353360008201527f332036382e303635322037322e303931352034372039372e323535203437483160208201527f30342e323831433132392e363138203437203134392e3731392036382e33343360408201527f39203134382e3230322039332e363335324c3134382039374c3134382e39303960608201527f203131372e303032433135302e303438203134322e303631203133302e30333960808201527f20313633203130342e393535203136334839362e363938324337312e3734343560a08201527f203136332035312e37383532203134322e32372035322e37323938203131372e60c08201527f3333354c35332e352039374c35332e333039392039332e313937325a2220666960e08201527f6c6c3d2223333933393339222f3e00000000000000000000000000000000000061010082015250565b6000614ec161010e836138e7565b9150614ecc82614d59565b61010e82019050919050565b7f3c706174682066696c6c2d72756c653d226576656e6f64642220636c69702d7260008201527f756c653d226576656e6f64642220643d224d37322e30393431203130342e353860208201527f324337322e36323832203130342e3131352037322e36333739203130332e323760408201527f342037322e31323338203130322e3738354336382e333531332039392e31393260608201527f332036362039342e313230372036362038382e354336362037372e363037382060808201527f37342e38332036382e373737382038352e373232322036382e3737373843393160a08201527f2e363430392036382e373737382039362e393530362037312e3338352031303060c08201527f2e3536362037352e35313334433130312e3035342037362e303731372031303160e08201527f2e3934362037362e30373137203130322e3433342037352e35313334433130366101008201527f2e3034392037312e333835203131312e3335392036382e37373738203131372e6101208201527f3237382036382e37373738433132382e31372036382e373737382031333720376101408201527f372e36303738203133372038382e35433133372039342e31323739203133342e6101608201527f3634332039392e32303532203133302e383632203130322e373938433133302e6101808201527f333437203130332e323838203133302e333536203130342e313239203133302e6101a08201527f3839203130342e353937433133362e343734203130392e3438352031343020316101c08201527f31362e36363620313430203132342e363743313430203133372e3334372031336101e08201527f312e313032203134382e353537203131382e35303720313530433130362e37326102008201527f32203135312e33352039362e33333134203135312e3332362038342e353530336102208201527f203134392e3937314337312e39333836203134382e353139203633203133372e6102408201527f333134203633203132342e363139433633203131362e3632392036362e3532306102608201527f31203130392e3436312037322e30393431203130342e3538325a222066696c6c6102808201527f3d222300000000000000000000000000000000000000000000000000000000006102a082015250565b600061523b6102a3836138e7565b915061524682614ed8565b6102a382019050919050565b7f222f3e3c706174682066696c6c2d72756c653d226576656e6f64642220636c6960008201527f702d72756c653d226576656e6f64642220643d224d3133392e3831203132312e60208201527f343732433133392e393336203132322e353220313430203132332e353838203160408201527f3430203132342e363743313430203133372e333438203133312e31303220313460608201527f382e353537203131382e35303720313530433130362e373232203135312e333560808201527f2039362e33333134203135312e3332362038342e35353033203134392e39373160a08201527f4337312e39333836203134382e353139203633203133372e333134203633203160c08201527f32342e363139433633203132342e3036312036332e30313732203132332e353060e08201527f372036332e303531203132322e3935374337302e38333933203131322e3232316101008201527f2038352e33363536203130352031303220313035433131372e383535203130356101208201527f203133312e373935203131312e3536203133392e3831203132312e3437325a226101408201527f2066696c6c3d2223433443344334222f3e00000000000000000000000000000061016082015250565b600061542f610171836138e7565b915061543a82615252565b61017182019050919050565b7f3c636972636c652063783d223833222063793d2238352220723d22313122206660008201527f696c6c3d227768697465222f3e00000000000000000000000000000000000000602082015250565b60006154a2602d836138e7565b91506154ad82615446565b602d82019050919050565b7f3c636972636c652063783d223833222063793d2238352220723d22372e33333360008201527f3333222066696c6c3d2223000000000000000000000000000000000000000000602082015250565b6000615514602b836138e7565b915061551f826154b8565b602b82019050919050565b7f222f3e3c636972636c652063783d2238352e3735222063793d2238322e38363160008201527f322220723d22322e3735222066696c6c3d227768697465222f3e000000000000602082015250565b6000615586603a836138e7565b91506155918261552a565b603a82019050919050565b7f3c636972636c652063783d22313139222063793d2238352220723d223131222060008201527f66696c6c3d227768697465222f3e000000000000000000000000000000000000602082015250565b60006155f8602e836138e7565b91506156038261559c565b602e82019050919050565b7f3c636972636c652063783d22313139222063793d2238352220723d22372e333360008201527f333333222066696c6c3d22230000000000000000000000000000000000000000602082015250565b600061566a602c836138e7565b91506156758261560e565b602c82019050919050565b7f222f3e3c636972636c652063783d223132312e3735222063793d2238322e383660008201527f31322220723d22322e3735222066696c6c3d227768697465222f3e0000000000602082015250565b60006156dc603b836138e7565b91506156e782615680565b603b82019050919050565b7f3c656c6c697073652063783d223837222063793d22313139222072783d22332260008201527f2072793d2234222066696c6c3d2223333933393339222f3e0000000000000000602082015250565b600061574e6038836138e7565b9150615759826156f2565b603882019050919050565b7f3c656c6c697073652063783d22313136222063793d22313139222072783d223360008201527f222072793d2234222066696c6c3d2223333933393339222f3e00000000000000602082015250565b60006157c06039836138e7565b91506157cb82615764565b603982019050919050565b7f3c7061746820643d224d3838203133324339322e37323733203134302031303960008201527f2e35333520313430203131342031333222207374726f6b653d2223333933393360208201527f3922207374726f6b652d77696474683d223222207374726f6b652d6c696e656360408201527f61703d22726f756e6422207374726f6b652d6c696e656a6f696e3d22726f756e60608201527f64222f3e00000000000000000000000000000000000000000000000000000000608082015250565b60006158a46084836138e7565b91506158af826157d6565b608482019050919050565b60006158c5826147a8565b91506158d1828761393e565b91506158dc8261481a565b91506158e7826148b2565b91506158f282614924565b91506158fd826149bc565b915061590882614d34565b915061591382614eb3565b915061591e8261522d565b915061592a828661393e565b915061593582615421565b915061594082615495565b915061594b82615507565b9150615957828561393e565b915061596282615579565b915061596d826155eb565b91506159788261565d565b9150615984828461393e565b915061598f826156cf565b915061599a82615741565b91506159a5826157b3565b91506159b082615897565b915081905095945050505050565b7f4e487b7100000000000000000000000000000000000000000000000000000000600052603160045260246000fdfe4142434445464748494a4b4c4d4e4f505152535455565758595a6162636465666768696a6b6c6d6e6f707172737475767778797a303132333435363738392b2fa2646970667358221220376a5f5ef131f403a572318ce0998b96a5db1f93fab5dbdb93160391c82c441c64736f6c63430008090033",
  "linkReferences": {},
  "deployedLinkReferences": {}
}