{
  "_format": "hh-sol-artifact-1",
  "contractName": "GOG",
  "sourceName": "contracts/GOG.sol",
  "abi": [
    {
      "inputs": [],
      "stateMutability": "nonpayable",
      "type": "constructor"
    },
    {
      "anonymous": false,
      "inputs": [
        {
          "indexed": true,
          "internalType": "address",
          "name": "owner",
          "type": "address"
        },
        {
          "indexed": true,
          "internalType": "address",
          "name": "approved",
          "type": "address"
        },
        {
          "indexed": true,
          "internalType": "uint256",
          "name": "tokenId",
          "type": "uint256"
        }
      ],
      "name": "Approval",
      "type": "event"
    },
    {
      "anonymous": false,
      "inputs": [
        {
          "indexed": true,
          "internalType": "address",
          "name": "owner",
          "type": "address"
        },
        {
          "indexed": true,
          "internalType": "address",
          "name": "operator",
          "type": "address"
        },
        {
          "indexed": false,
          "internalType": "bool",
          "name": "approved",
          "type": "bool"
        }
      ],
      "name": "ApprovalForAll",
      "type": "event"
    },
    {
      "anonymous": false,
      "inputs": [
        {
          "indexed": false,
          "internalType": "uint256",
          "name": "id",
          "type": "uint256"
        },
        {
          "indexed": false,
          "internalType": "string",
          "name": "metadata",
          "type": "string"
        }
      ],
      "name": "GorillaMinted",
      "type": "event"
    },
    {
      "anonymous": false,
      "inputs": [
        {
          "indexed": true,
          "internalType": "address",
          "name": "previousOwner",
          "type": "address"
        },
        {
          "indexed": true,
          "internalType": "address",
          "name": "newOwner",
          "type": "address"
        }
      ],
      "name": "OwnershipTransferred",
      "type": "event"
    },
    {
      "anonymous": false,
      "inputs": [
        {
          "indexed": true,
          "internalType": "address",
          "name": "from",
          "type": "address"
        },
        {
          "indexed": true,
          "internalType": "address",
          "name": "to",
          "type": "address"
        },
        {
          "indexed": true,
          "internalType": "uint256",
          "name": "tokenId",
          "type": "uint256"
        }
      ],
      "name": "Transfer",
      "type": "event"
    },
    {
      "inputs": [
        {
          "internalType": "address",
          "name": "to",
          "type": "address"
        },
        {
          "internalType": "uint256",
          "name": "tokenId",
          "type": "uint256"
        }
      ],
      "name": "approve",
      "outputs": [],
      "stateMutability": "nonpayable",
      "type": "function"
    },
    {
      "inputs": [
        {
          "internalType": "address",
          "name": "owner",
          "type": "address"
        }
      ],
      "name": "balanceOf",
      "outputs": [
        {
          "internalType": "uint256",
          "name": "",
          "type": "uint256"
        }
      ],
      "stateMutability": "view",
      "type": "function"
    },
    {
      "inputs": [
        {
          "internalType": "uint256",
          "name": "",
          "type": "uint256"
        }
      ],
      "name": "bgColor",
      "outputs": [
        {
          "internalType": "bytes3",
          "name": "",
          "type": "bytes3"
        }
      ],
      "stateMutability": "view",
      "type": "function"
    },
    {
      "inputs": [
        {
          "internalType": "uint256",
          "name": "",
          "type": "uint256"
        }
      ],
      "name": "color",
      "outputs": [
        {
          "internalType": "bytes3",
          "name": "",
          "type": "bytes3"
        }
      ],
      "stateMutability": "view",
      "type": "function"
    },
    {
      "inputs": [
        {
          "internalType": "uint256",
          "name": "",
          "type": "uint256"
        }
      ],
      "name": "eyeColor",
      "outputs": [
        {
          "internalType": "bytes3",
          "name": "",
          "type": "bytes3"
        }
      ],
      "stateMutability": "view",
      "type": "function"
    },
    {
      "inputs": [
        {
          "internalType": "uint256",
          "name": "tokenId",
          "type": "uint256"
        }
      ],
      "name": "getApproved",
      "outputs": [
        {
          "internalType": "address",
          "name": "",
          "type": "address"
        }
      ],
      "stateMutability": "view",
      "type": "function"
    },
    {
      "inputs": [
        {
          "internalType": "address",
          "name": "owner",
          "type": "address"
        },
        {
          "internalType": "address",
          "name": "operator",
          "type": "address"
        }
      ],
      "name": "isApprovedForAll",
      "outputs": [
        {
          "internalType": "bool",
          "name": "",
          "type": "bool"
        }
      ],
      "stateMutability": "view",
      "type": "function"
    },
    {
      "inputs": [],
      "name": "mintItem",
      "outputs": [
        {
          "internalType": "uint256",
          "name": "",
          "type": "uint256"
        }
      ],
      "stateMutability": "nonpayable",
      "type": "function"
    },
    {
      "inputs": [],
      "name": "name",
      "outputs": [
        {
          "internalType": "string",
          "name": "",
          "type": "string"
        }
      ],
      "stateMutability": "view",
      "type": "function"
    },
    {
      "inputs": [],
      "name": "owner",
      "outputs": [
        {
          "internalType": "address",
          "name": "",
          "type": "address"
        }
      ],
      "stateMutability": "view",
      "type": "function"
    },
    {
      "inputs": [
        {
          "internalType": "uint256",
          "name": "tokenId",
          "type": "uint256"
        }
      ],
      "name": "ownerOf",
      "outputs": [
        {
          "internalType": "address",
          "name": "",
          "type": "address"
        }
      ],
      "stateMutability": "view",
      "type": "function"
    },
    {
      "inputs": [],
      "name": "renounceOwnership",
      "outputs": [],
      "stateMutability": "nonpayable",
      "type": "function"
    },
    {
      "inputs": [
        {
          "internalType": "address",
          "name": "from",
          "type": "address"
        },
        {
          "internalType": "address",
          "name": "to",
          "type": "address"
        },
        {
          "internalType": "uint256",
          "name": "tokenId",
          "type": "uint256"
        }
      ],
      "name": "safeTransferFrom",
      "outputs": [],
      "stateMutability": "nonpayable",
      "type": "function"
    },
    {
      "inputs": [
        {
          "internalType": "address",
          "name": "from",
          "type": "address"
        },
        {
          "internalType": "address",
          "name": "to",
          "type": "address"
        },
        {
          "internalType": "uint256",
          "name": "tokenId",
          "type": "uint256"
        },
        {
          "internalType": "bytes",
          "name": "_data",
          "type": "bytes"
        }
      ],
      "name": "safeTransferFrom",
      "outputs": [],
      "stateMutability": "nonpayable",
      "type": "function"
    },
    {
      "inputs": [
        {
          "internalType": "address",
          "name": "operator",
          "type": "address"
        },
        {
          "internalType": "bool",
          "name": "approved",
          "type": "bool"
        }
      ],
      "name": "setApprovalForAll",
      "outputs": [],
      "stateMutability": "nonpayable",
      "type": "function"
    },
    {
      "inputs": [
        {
          "internalType": "bytes4",
          "name": "interfaceId",
          "type": "bytes4"
        }
      ],
      "name": "supportsInterface",
      "outputs": [
        {
          "internalType": "bool",
          "name": "",
          "type": "bool"
        }
      ],
      "stateMutability": "view",
      "type": "function"
    },
    {
      "inputs": [],
      "name": "symbol",
      "outputs": [
        {
          "internalType": "string",
          "name": "",
          "type": "string"
        }
      ],
      "stateMutability": "view",
      "type": "function"
    },
    {
      "inputs": [
        {
          "internalType": "uint256",
          "name": "index",
          "type": "uint256"
        }
      ],
      "name": "tokenByIndex",
      "outputs": [
        {
          "internalType": "uint256",
          "name": "",
          "type": "uint256"
        }
      ],
      "stateMutability": "view",
      "type": "function"
    },
    {
      "inputs": [
        {
          "internalType": "address",
          "name": "owner",
          "type": "address"
        },
        {
          "internalType": "uint256",
          "name": "index",
          "type": "uint256"
        }
      ],
      "name": "tokenOfOwnerByIndex",
      "outputs": [
        {
          "internalType": "uint256",
          "name": "",
          "type": "uint256"
        }
      ],
      "stateMutability": "view",
      "type": "function"
    },
    {
      "inputs": [
        {
          "internalType": "uint256",
          "name": "id",
          "type": "uint256"
        }
      ],
      "name": "tokenURI",
      "outputs": [
        {
          "internalType": "string",
          "name": "",
          "type": "string"
        }
      ],
      "stateMutability": "view",
      "type": "function"
    },
    {
      "inputs": [],
      "name": "totalSupply",
      "outputs": [
        {
          "internalType": "uint256",
          "name": "",
          "type": "uint256"
        }
      ],
      "stateMutability": "view",
      "type": "function"
    },
    {
      "inputs": [
        {
          "internalType": "address",
          "name": "from",
          "type": "address"
        },
        {
          "internalType": "address",
          "name": "to",
          "type": "address"
        },
        {
          "internalType": "uint256",
          "name": "tokenId",
          "type": "uint256"
        }
      ],
      "name": "transferFrom",
      "outputs": [],
      "stateMutability": "nonpayable",
      "type": "function"
    },
    {
      "inputs": [
        {
          "internalType": "address",
          "name": "newOwner",
          "type": "address"
        }
      ],
      "name": "transferOwnership",
      "outputs": [],
      "stateMutability": "nonpayable",
      "type": "function"
    }
  ],
  "bytecode": "0x60806040523480156200001157600080fd5b506040518060400160405280600c81526020017f476f72696c6c612047616e6700000000000000000000000000000000000000008152506040518060400160405280600381526020017f474f470000000000000000000000000000000000000000000000000000000000815250816000908051906020019062000096929190620001a6565b508060019080519060200190620000af929190620001a6565b505050620000d2620000c6620000d860201b60201c565b620000e060201b60201c565b620002bb565b600033905090565b6000600a60009054906101000a900473ffffffffffffffffffffffffffffffffffffffff16905081600a60006101000a81548173ffffffffffffffffffffffffffffffffffffffff021916908373ffffffffffffffffffffffffffffffffffffffff1602179055508173ffffffffffffffffffffffffffffffffffffffff168173ffffffffffffffffffffffffffffffffffffffff167f8be0079c531659141344cd1fd0a4f28419497f9722a3daafe3b4186f6b6457e060405160405180910390a35050565b828054620001b49062000285565b90600052602060002090601f016020900481019282620001d8576000855562000224565b82601f10620001f357805160ff191683800117855562000224565b8280016001018555821562000224579182015b828111156200022357825182559160200191906001019062000206565b5b50905062000233919062000237565b5090565b5b808211156200025257600081600090555060010162000238565b5090565b7f4e487b7100000000000000000000000000000000000000000000000000000000600052602260045260246000fd5b600060028204905060018216806200029e57607f821691505b60208210811415620002b557620002b462000256565b5b50919050565b615c8c80620002cb6000396000f3fe608060405234801561001057600080fd5b506004361061014d5760003560e01c806370a08231116100c3578063b88d4fde1161007c578063b88d4fde146103c4578063c87b56dd146103e0578063d4e28c9c14610410578063e985e9c514610440578063eb93406b14610470578063f2fde38b1461048e5761014d565b806370a0823114610302578063715018a6146103325780638da5cb5b1461033c57806395d89b411461035a578063969e4b8d14610378578063a22cb465146103a85761014d565b806323b872dd1161011557806323b872dd1461020a5780632f745c591461022657806342842e0e146102565780634f6ccce714610272578063608ef2e4146102a25780636352211e146102d25761014d565b806301ffc9a71461015257806306fdde0314610182578063081812fc146101a0578063095ea7b3146101d057806318160ddd146101ec575b600080fd5b61016c60048036038101906101679190612da7565b6104aa565b6040516101799190612def565b60405180910390f35b61018a610524565b6040516101979190612ea3565b60405180910390f35b6101ba60048036038101906101b59190612efb565b6105b6565b6040516101c79190612f69565b60405180910390f35b6101ea60048036038101906101e59190612fb0565b61063b565b005b6101f4610753565b6040516102019190612fff565b60405180910390f35b610224600480360381019061021f919061301a565b610760565b005b610240600480360381019061023b9190612fb0565b6107c0565b60405161024d9190612fff565b60405180910390f35b610270600480360381019061026b919061301a565b610865565b005b61028c60048036038101906102879190612efb565b610885565b6040516102999190612fff565b60405180910390f35b6102bc60048036038101906102b79190612efb565b6108f6565b6040516102c991906130a8565b60405180910390f35b6102ec60048036038101906102e79190612efb565b610916565b6040516102f99190612f69565b60405180910390f35b61031c600480360381019061031791906130c3565b6109c8565b6040516103299190612fff565b60405180910390f35b61033a610a80565b005b610344610b08565b6040516103519190612f69565b60405180910390f35b610362610b32565b60405161036f9190612ea3565b60405180910390f35b610392600480360381019061038d9190612efb565b610bc4565b60405161039f91906130a8565b60405180910390f35b6103c260048036038101906103bd919061311c565b610be4565b005b6103de60048036038101906103d99190613291565b610bfa565b005b6103fa60048036038101906103f59190612efb565b610c5c565b6040516104079190612ea3565b60405180910390f35b61042a60048036038101906104259190612efb565b610e6f565b60405161043791906130a8565b60405180910390f35b61045a60048036038101906104559190613314565b610e8f565b6040516104679190612def565b60405180910390f35b610478610f23565b6040516104859190612fff565b60405180910390f35b6104a860048036038101906104a391906130c3565b6113f0565b005b60007f780e9d63000000000000000000000000000000000000000000000000000000007bffffffffffffffffffffffffffffffffffffffffffffffffffffffff1916827bffffffffffffffffffffffffffffffffffffffffffffffffffffffff1916148061051d575061051c826114e8565b5b9050919050565b60606000805461053390613383565b80601f016020809104026020016040519081016040528092919081815260200182805461055f90613383565b80156105ac5780601f10610581576101008083540402835291602001916105ac565b820191906000526020600020905b81548152906001019060200180831161058f57829003601f168201915b5050505050905090565b60006105c1826115ca565b610600576040517f08c379a00000000000000000000000000000000000000000000000000000000081526004016105f790613427565b60405180910390fd5b6004600083815260200190815260200160002060009054906101000a900473ffffffffffffffffffffffffffffffffffffffff169050919050565b600061064682610916565b90508073ffffffffffffffffffffffffffffffffffffffff168373ffffffffffffffffffffffffffffffffffffffff1614156106b7576040517f08c379a00000000000000000000000000000000000000000000000000000000081526004016106ae906134b9565b60405180910390fd5b8073ffffffffffffffffffffffffffffffffffffffff166106d6611636565b73ffffffffffffffffffffffffffffffffffffffff1614806107055750610704816106ff611636565b610e8f565b5b610744576040517f08c379a000000000000000000000000000000000000000000000000000000000815260040161073b9061354b565b60405180910390fd5b61074e838361163e565b505050565b6000600880549050905090565b61077161076b611636565b826116f7565b6107b0576040517f08c379a00000000000000000000000000000000000000000000000000000000081526004016107a7906135dd565b60405180910390fd5b6107bb8383836117d5565b505050565b60006107cb836109c8565b821061080c576040517f08c379a00000000000000000000000000000000000000000000000000000000081526004016108039061366f565b60405180910390fd5b600660008473ffffffffffffffffffffffffffffffffffffffff1673ffffffffffffffffffffffffffffffffffffffff168152602001908152602001600020600083815260200190815260200160002054905092915050565b61088083838360405180602001604052806000815250610bfa565b505050565b600061088f610753565b82106108d0576040517f08c379a00000000000000000000000000000000000000000000000000000000081526004016108c790613701565b60405180910390fd5b600882815481106108e4576108e3613721565b5b90600052602060002001549050919050565b600c6020528060005260406000206000915054906101000a900460e81b81565b6000806002600084815260200190815260200160002060009054906101000a900473ffffffffffffffffffffffffffffffffffffffff169050600073ffffffffffffffffffffffffffffffffffffffff168173ffffffffffffffffffffffffffffffffffffffff1614156109bf576040517f08c379a00000000000000000000000000000000000000000000000000000000081526004016109b6906137c2565b60405180910390fd5b80915050919050565b60008073ffffffffffffffffffffffffffffffffffffffff168273ffffffffffffffffffffffffffffffffffffffff161415610a39576040517f08c379a0000000000000000000000000000000000000000000000000000000008152600401610a3090613854565b60405180910390fd5b600360008373ffffffffffffffffffffffffffffffffffffffff1673ffffffffffffffffffffffffffffffffffffffff168152602001908152602001600020549050919050565b610a88611636565b73ffffffffffffffffffffffffffffffffffffffff16610aa6610b08565b73ffffffffffffffffffffffffffffffffffffffff1614610afc576040517f08c379a0000000000000000000000000000000000000000000000000000000008152600401610af3906138c0565b60405180910390fd5b610b066000611a31565b565b6000600a60009054906101000a900473ffffffffffffffffffffffffffffffffffffffff16905090565b606060018054610b4190613383565b80601f0160208091040260200160405190810160405280929190818152602001828054610b6d90613383565b8015610bba5780601f10610b8f57610100808354040283529160200191610bba565b820191906000526020600020905b815481529060010190602001808311610b9d57829003601f168201915b5050505050905090565b600d6020528060005260406000206000915054906101000a900460e81b81565b610bf6610bef611636565b8383611af7565b5050565b610c0b610c05611636565b836116f7565b610c4a576040517f08c379a0000000000000000000000000000000000000000000000000000000008152600401610c41906135dd565b60405180910390fd5b610c5684848484611c64565b50505050565b6060610c67826115ca565b610ca6576040517f08c379a0000000000000000000000000000000000000000000000000000000008152600401610c9d9061392c565b60405180910390fd5b6000610cb183611cc0565b604051602001610cc191906139d4565b60405160208183030381529060405290506000604051602001610ce390613b26565b60405160208183030381529060405290506000610d07610d0286611e21565b611e58565b9050610e468383610d57600d60008a815260200190815260200160002060009054906101000a900460e81b7cffffffffffffffffffffffffffffffffffffffffffffffffffffffffff1916611fd1565b610da0600c60008b815260200190815260200160002060009054906101000a900460e81b7cffffffffffffffffffffffffffffffffffffffffffffffffffffffffff1916611fd1565b610de9600e60008c815260200190815260200160002060009054906101000a900460e81b7cffffffffffffffffffffffffffffffffffffffffffffffffffffffffff1916611fd1565b610e1b6014610df78d610916565b73ffffffffffffffffffffffffffffffffffffffff166121c890919063ffffffff16565b87604051602001610e329796959493929190613e7f565b604051602081830303815290604052611e58565b604051602001610e569190613f93565b6040516020818303038152906040529350505050919050565b600e6020528060005260406000206000915054906101000a900460e81b81565b6000600560008473ffffffffffffffffffffffffffffffffffffffff1673ffffffffffffffffffffffffffffffffffffffff16815260200190815260200160002060008373ffffffffffffffffffffffffffffffffffffffff1673ffffffffffffffffffffffffffffffffffffffff16815260200190815260200160002060009054906101000a900460ff16905092915050565b60006101f4610f32600b6123c1565b10610f72576040517f08c379a0000000000000000000000000000000000000000000000000000000008152600401610f6990614001565b60405180910390fd5b610f7c600b6123cf565b6000610f88600b6123c1565b9050610f9433826123e5565b6000600143610fa39190614050565b40333084604051602001610fba9493929190614118565b604051602081830303815290604052805190602001209050601081600260208110610fe857610fe7613721565b5b1a60f81b7effffffffffffffffffffffffffffffffffffffffffffffffffffffffffffff19167cffffffffffffffffffffffffffffffffffffffffffffffffffffffffff1916901c60088260016020811061104657611045613721565b5b1a60f81b7effffffffffffffffffffffffffffffffffffffffffffffffffffffffffffff19167dffffffffffffffffffffffffffffffffffffffffffffffffffffffffffff1916901c826000602081106110a3576110a2613721565b5b1a60f81b7effffffffffffffffffffffffffffffffffffffffffffffffffffffffffffff1916177dffffffffffffffffffffffffffffffffffffffffffffffffffffffffffff191617600d600084815260200190815260200160002060006101000a81548162ffffff021916908360e81c021790555060108160056020811061112f5761112e613721565b5b1a60f81b7effffffffffffffffffffffffffffffffffffffffffffffffffffffffffffff19167cffffffffffffffffffffffffffffffffffffffffffffffffffffffffff1916901c60088260046020811061118d5761118c613721565b5b1a60f81b7effffffffffffffffffffffffffffffffffffffffffffffffffffffffffffff19167dffffffffffffffffffffffffffffffffffffffffffffffffffffffffffff1916901c826003602081106111ea576111e9613721565b5b1a60f81b7effffffffffffffffffffffffffffffffffffffffffffffffffffffffffffff1916177dffffffffffffffffffffffffffffffffffffffffffffffffffffffffffff191617600c600084815260200190815260200160002060006101000a81548162ffffff021916908360e81c021790555060108160076020811061127657611275613721565b5b1a60f81b7effffffffffffffffffffffffffffffffffffffffffffffffffffffffffffff19167cffffffffffffffffffffffffffffffffffffffffffffffffffffffffff1916901c6008826007602081106112d4576112d3613721565b5b1a60f81b7effffffffffffffffffffffffffffffffffffffffffffffffffffffffffffff19167dffffffffffffffffffffffffffffffffffffffffffffffffffffffffffff1916901c8260066020811061133157611330613721565b5b1a60f81b7effffffffffffffffffffffffffffffffffffffffffffffffffffffffffffff1916177dffffffffffffffffffffffffffffffffffffffffffffffffffffffffffff191617600e600084815260200190815260200160002060006101000a81548162ffffff021916908360e81c02179055507fdde7012490bfe65b81a7fb88cee7679b8a15e4af474c7c100dcfaa39633e9231826113d284610c5c565b6040516113e0929190614166565b60405180910390a1819250505090565b6113f8611636565b73ffffffffffffffffffffffffffffffffffffffff16611416610b08565b73ffffffffffffffffffffffffffffffffffffffff161461146c576040517f08c379a0000000000000000000000000000000000000000000000000000000008152600401611463906138c0565b60405180910390fd5b600073ffffffffffffffffffffffffffffffffffffffff168173ffffffffffffffffffffffffffffffffffffffff1614156114dc576040517f08c379a00000000000000000000000000000000000000000000000000000000081526004016114d390614208565b60405180910390fd5b6114e581611a31565b50565b60007f80ac58cd000000000000000000000000000000000000000000000000000000007bffffffffffffffffffffffffffffffffffffffffffffffffffffffff1916827bffffffffffffffffffffffffffffffffffffffffffffffffffffffff191614806115b357507f5b5e139f000000000000000000000000000000000000000000000000000000007bffffffffffffffffffffffffffffffffffffffffffffffffffffffff1916827bffffffffffffffffffffffffffffffffffffffffffffffffffffffff1916145b806115c357506115c2826125b3565b5b9050919050565b60008073ffffffffffffffffffffffffffffffffffffffff166002600084815260200190815260200160002060009054906101000a900473ffffffffffffffffffffffffffffffffffffffff1673ffffffffffffffffffffffffffffffffffffffff1614159050919050565b600033905090565b816004600083815260200190815260200160002060006101000a81548173ffffffffffffffffffffffffffffffffffffffff021916908373ffffffffffffffffffffffffffffffffffffffff160217905550808273ffffffffffffffffffffffffffffffffffffffff166116b183610916565b73ffffffffffffffffffffffffffffffffffffffff167f8c5be1e5ebec7d5bd14f71427d1e84f3dd0314c0f7b2291e5b200ac8c7c3b92560405160405180910390a45050565b6000611702826115ca565b611741576040517f08c379a00000000000000000000000000000000000000000000000000000000081526004016117389061429a565b60405180910390fd5b600061174c83610916565b90508073ffffffffffffffffffffffffffffffffffffffff168473ffffffffffffffffffffffffffffffffffffffff1614806117bb57508373ffffffffffffffffffffffffffffffffffffffff166117a3846105b6565b73ffffffffffffffffffffffffffffffffffffffff16145b806117cc57506117cb8185610e8f565b5b91505092915050565b8273ffffffffffffffffffffffffffffffffffffffff166117f582610916565b73ffffffffffffffffffffffffffffffffffffffff161461184b576040517f08c379a00000000000000000000000000000000000000000000000000000000081526004016118429061432c565b60405180910390fd5b600073ffffffffffffffffffffffffffffffffffffffff168273ffffffffffffffffffffffffffffffffffffffff1614156118bb576040517f08c379a00000000000000000000000000000000000000000000000000000000081526004016118b2906143be565b60405180910390fd5b6118c683838361261d565b6118d160008261163e565b6001600360008573ffffffffffffffffffffffffffffffffffffffff1673ffffffffffffffffffffffffffffffffffffffff16815260200190815260200160002060008282546119219190614050565b925050819055506001600360008473ffffffffffffffffffffffffffffffffffffffff1673ffffffffffffffffffffffffffffffffffffffff168152602001908152602001600020600082825461197891906143de565b92505081905550816002600083815260200190815260200160002060006101000a81548173ffffffffffffffffffffffffffffffffffffffff021916908373ffffffffffffffffffffffffffffffffffffffff160217905550808273ffffffffffffffffffffffffffffffffffffffff168473ffffffffffffffffffffffffffffffffffffffff167fddf252ad1be2c89b69c2b068fc378daa952ba7f163c4a11628f55a4df523b3ef60405160405180910390a4505050565b6000600a60009054906101000a900473ffffffffffffffffffffffffffffffffffffffff16905081600a60006101000a81548173ffffffffffffffffffffffffffffffffffffffff021916908373ffffffffffffffffffffffffffffffffffffffff1602179055508173ffffffffffffffffffffffffffffffffffffffff168173ffffffffffffffffffffffffffffffffffffffff167f8be0079c531659141344cd1fd0a4f28419497f9722a3daafe3b4186f6b6457e060405160405180910390a35050565b8173ffffffffffffffffffffffffffffffffffffffff168373ffffffffffffffffffffffffffffffffffffffff161415611b66576040517f08c379a0000000000000000000000000000000000000000000000000000000008152600401611b5d90614480565b60405180910390fd5b80600560008573ffffffffffffffffffffffffffffffffffffffff1673ffffffffffffffffffffffffffffffffffffffff16815260200190815260200160002060008473ffffffffffffffffffffffffffffffffffffffff1673ffffffffffffffffffffffffffffffffffffffff16815260200190815260200160002060006101000a81548160ff0219169083151502179055508173ffffffffffffffffffffffffffffffffffffffff168373ffffffffffffffffffffffffffffffffffffffff167f17307eab39ab6107e8899845ad3d59bd9653f200f220920489ca2b5937696c3183604051611c579190612def565b60405180910390a3505050565b611c6f8484846117d5565b611c7b84848484612731565b611cba576040517f08c379a0000000000000000000000000000000000000000000000000000000008152600401611cb190614512565b60405180910390fd5b50505050565b60606000821415611d08576040518060400160405280600181526020017f30000000000000000000000000000000000000000000000000000000000000008152509050611e1c565b600082905060005b60008214611d3a578080611d2390614532565b915050600a82611d3391906145aa565b9150611d10565b60008167ffffffffffffffff811115611d5657611d55613166565b5b6040519080825280601f01601f191660200182016040528015611d885781602001600182028036833780820191505090505b5090505b60008514611e1557600182611da19190614050565b9150600a85611db091906145db565b6030611dbc91906143de565b60f81b818381518110611dd257611dd1613721565b5b60200101907effffffffffffffffffffffffffffffffffffffffffffffffffffffffffffff1916908160001a905350600a85611e0e91906145aa565b9450611d8c565b8093505050505b919050565b60606000611e2e836128c8565b604051602001611e3e9190614716565b604051602081830303815290604052905080915050919050565b6060600082511415611e7b57604051806020016040528060008152509050611fcc565b6000604051806060016040528060408152602001615c176040913990506000600360028551611eaa91906143de565b611eb491906145aa565b6004611ec09190614743565b90506000602082611ed191906143de565b67ffffffffffffffff811115611eea57611ee9613166565b5b6040519080825280601f01601f191660200182016040528015611f1c5781602001600182028036833780820191505090505b509050818152600183018586518101602084015b81831015611f8b576003830192508251603f8160121c168501518253600182019150603f81600c1c168501518253600182019150603f8160061c168501518253600182019150603f8116850151825360018201915050611f30565b600389510660018114611fa55760028114611fb557611fc0565b613d3d60f01b6002830352611fc0565b603d60f81b60018303525b50505050508093505050505b919050565b60606000600667ffffffffffffffff811115611ff057611fef613166565b5b6040519080825280601f01601f1916602001820160405280156120225781602001600182028036833780820191505090505b50905060005b60038110156121be577f3031323334353637383961626364656600000000000000000000000000000000600f85836003811061206757612066613721565b5b1a60f81b60f81c1660ff166010811061208357612082613721565b5b1a60f81b8260016002846120979190614743565b6120a191906143de565b815181106120b2576120b1613721565b5b60200101907effffffffffffffffffffffffffffffffffffffffffffffffffffffffffffff1916908160001a9053507f3031323334353637383961626364656600000000000000000000000000000000600f600486846003811061211957612118613721565b5b1a60f81b7effffffffffffffffffffffffffffffffffffffffffffffffffffffffffffff1916901c60f81c1660ff166010811061215957612158613721565b5b1a60f81b8260028361216b9190614743565b8151811061217c5761217b613721565b5b60200101907effffffffffffffffffffffffffffffffffffffffffffffffffffffffffffff1916908160001a90535080806121b690614532565b915050612028565b5080915050919050565b6060600060028360026121db9190614743565b6121e591906143de565b67ffffffffffffffff8111156121fe576121fd613166565b5b6040519080825280601f01601f1916602001820160405280156122305781602001600182028036833780820191505090505b5090507f30000000000000000000000000000000000000000000000000000000000000008160008151811061226857612267613721565b5b60200101907effffffffffffffffffffffffffffffffffffffffffffffffffffffffffffff1916908160001a9053507f7800000000000000000000000000000000000000000000000000000000000000816001815181106122cc576122cb613721565b5b60200101907effffffffffffffffffffffffffffffffffffffffffffffffffffffffffffff1916908160001a9053506000600184600261230c9190614743565b61231691906143de565b90505b60018111156123b6577f3031323334353637383961626364656600000000000000000000000000000000600f86166010811061235857612357613721565b5b1a60f81b82828151811061236f5761236e613721565b5b60200101907effffffffffffffffffffffffffffffffffffffffffffffffffffffffffffff1916908160001a905350600485901c9450806123af9061479d565b9050612319565b508091505092915050565b600081600001549050919050565b6001816000016000828254019250508190555050565b600073ffffffffffffffffffffffffffffffffffffffff168273ffffffffffffffffffffffffffffffffffffffff161415612455576040517f08c379a000000000000000000000000000000000000000000000000000000000815260040161244c90614813565b60405180910390fd5b61245e816115ca565b1561249e576040517f08c379a00000000000000000000000000000000000000000000000000000000081526004016124959061487f565b60405180910390fd5b6124aa6000838361261d565b6001600360008473ffffffffffffffffffffffffffffffffffffffff1673ffffffffffffffffffffffffffffffffffffffff16815260200190815260200160002060008282546124fa91906143de565b92505081905550816002600083815260200190815260200160002060006101000a81548173ffffffffffffffffffffffffffffffffffffffff021916908373ffffffffffffffffffffffffffffffffffffffff160217905550808273ffffffffffffffffffffffffffffffffffffffff16600073ffffffffffffffffffffffffffffffffffffffff167fddf252ad1be2c89b69c2b068fc378daa952ba7f163c4a11628f55a4df523b3ef60405160405180910390a45050565b60007f01ffc9a7000000000000000000000000000000000000000000000000000000007bffffffffffffffffffffffffffffffffffffffffffffffffffffffff1916827bffffffffffffffffffffffffffffffffffffffffffffffffffffffff1916149050919050565b612628838383612a1d565b600073ffffffffffffffffffffffffffffffffffffffff168373ffffffffffffffffffffffffffffffffffffffff16141561266b5761266681612a22565b6126aa565b8173ffffffffffffffffffffffffffffffffffffffff168373ffffffffffffffffffffffffffffffffffffffff16146126a9576126a88382612a6b565b5b5b600073ffffffffffffffffffffffffffffffffffffffff168273ffffffffffffffffffffffffffffffffffffffff1614156126ed576126e881612bd8565b61272c565b8273ffffffffffffffffffffffffffffffffffffffff168273ffffffffffffffffffffffffffffffffffffffff161461272b5761272a8282612ca9565b5b5b505050565b60006127528473ffffffffffffffffffffffffffffffffffffffff16612d28565b156128bb578373ffffffffffffffffffffffffffffffffffffffff1663150b7a0261277b611636565b8786866040518563ffffffff1660e01b815260040161279d94939291906148f4565b602060405180830381600087803b1580156127b757600080fd5b505af19250505080156127e857506040513d601f19601f820116820180604052508101906127e59190614955565b60015b61286b573d8060008114612818576040519150601f19603f3d011682016040523d82523d6000602084013e61281d565b606091505b50600081511415612863576040517f08c379a000000000000000000000000000000000000000000000000000000000815260040161285a90614512565b60405180910390fd5b805181602001fd5b63150b7a0260e01b7bffffffffffffffffffffffffffffffffffffffffffffffffffffffff1916817bffffffffffffffffffffffffffffffffffffffffffffffffffffffff1916149150506128c0565b600190505b949350505050565b60606000612915600c600085815260200190815260200160002060009054906101000a900460e81b7cffffffffffffffffffffffffffffffffffffffffffffffffffffffffff1916611fd1565b61295e600e600086815260200190815260200160002060009054906101000a900460e81b7cffffffffffffffffffffffffffffffffffffffffffffffffffffffffff1916611fd1565b6129a7600d600087815260200190815260200160002060009054906101000a900460e81b7cffffffffffffffffffffffffffffffffffffffffffffffffffffffffff1916611fd1565b6129f0600d600088815260200190815260200160002060009054906101000a900460e81b7cffffffffffffffffffffffffffffffffffffffffffffffffffffffffff1916611fd1565b604051602001612a039493929190615ae3565b604051602081830303815290604052905080915050919050565b505050565b6008805490506009600083815260200190815260200160002081905550600881908060018154018082558091505060019003906000526020600020016000909190919091505550565b60006001612a78846109c8565b612a829190614050565b9050600060076000848152602001908152602001600020549050818114612b67576000600660008673ffffffffffffffffffffffffffffffffffffffff1673ffffffffffffffffffffffffffffffffffffffff168152602001908152602001600020600084815260200190815260200160002054905080600660008773ffffffffffffffffffffffffffffffffffffffff1673ffffffffffffffffffffffffffffffffffffffff168152602001908152602001600020600084815260200190815260200160002081905550816007600083815260200190815260200160002081905550505b6007600084815260200190815260200160002060009055600660008573ffffffffffffffffffffffffffffffffffffffff1673ffffffffffffffffffffffffffffffffffffffff16815260200190815260200160002060008381526020019081526020016000206000905550505050565b60006001600880549050612bec9190614050565b9050600060096000848152602001908152602001600020549050600060088381548110612c1c57612c1b613721565b5b906000526020600020015490508060088381548110612c3e57612c3d613721565b5b906000526020600020018190555081600960008381526020019081526020016000208190555060096000858152602001908152602001600020600090556008805480612c8d57612c8c615be7565b5b6001900381819060005260206000200160009055905550505050565b6000612cb4836109c8565b905081600660008573ffffffffffffffffffffffffffffffffffffffff1673ffffffffffffffffffffffffffffffffffffffff168152602001908152602001600020600083815260200190815260200160002081905550806007600084815260200190815260200160002081905550505050565b600080823b905060008111915050919050565b6000604051905090565b600080fd5b600080fd5b60007fffffffff0000000000000000000000000000000000000000000000000000000082169050919050565b612d8481612d4f565b8114612d8f57600080fd5b50565b600081359050612da181612d7b565b92915050565b600060208284031215612dbd57612dbc612d45565b5b6000612dcb84828501612d92565b91505092915050565b60008115159050919050565b612de981612dd4565b82525050565b6000602082019050612e046000830184612de0565b92915050565b600081519050919050565b600082825260208201905092915050565b60005b83811015612e44578082015181840152602081019050612e29565b83811115612e53576000848401525b50505050565b6000601f19601f8301169050919050565b6000612e7582612e0a565b612e7f8185612e15565b9350612e8f818560208601612e26565b612e9881612e59565b840191505092915050565b60006020820190508181036000830152612ebd8184612e6a565b905092915050565b6000819050919050565b612ed881612ec5565b8114612ee357600080fd5b50565b600081359050612ef581612ecf565b92915050565b600060208284031215612f1157612f10612d45565b5b6000612f1f84828501612ee6565b91505092915050565b600073ffffffffffffffffffffffffffffffffffffffff82169050919050565b6000612f5382612f28565b9050919050565b612f6381612f48565b82525050565b6000602082019050612f7e6000830184612f5a565b92915050565b612f8d81612f48565b8114612f9857600080fd5b50565b600081359050612faa81612f84565b92915050565b60008060408385031215612fc757612fc6612d45565b5b6000612fd585828601612f9b565b9250506020612fe685828601612ee6565b9150509250929050565b612ff981612ec5565b82525050565b60006020820190506130146000830184612ff0565b92915050565b60008060006060848603121561303357613032612d45565b5b600061304186828701612f9b565b935050602061305286828701612f9b565b925050604061306386828701612ee6565b9150509250925092565b60007fffffff000000000000000000000000000000000000000000000000000000000082169050919050565b6130a28161306d565b82525050565b60006020820190506130bd6000830184613099565b92915050565b6000602082840312156130d9576130d8612d45565b5b60006130e784828501612f9b565b91505092915050565b6130f981612dd4565b811461310457600080fd5b50565b600081359050613116816130f0565b92915050565b6000806040838503121561313357613132612d45565b5b600061314185828601612f9b565b925050602061315285828601613107565b9150509250929050565b600080fd5b600080fd5b7f4e487b7100000000000000000000000000000000000000000000000000000000600052604160045260246000fd5b61319e82612e59565b810181811067ffffffffffffffff821117156131bd576131bc613166565b5b80604052505050565b60006131d0612d3b565b90506131dc8282613195565b919050565b600067ffffffffffffffff8211156131fc576131fb613166565b5b61320582612e59565b9050602081019050919050565b82818337600083830152505050565b600061323461322f846131e1565b6131c6565b9050828152602081018484840111156132505761324f613161565b5b61325b848285613212565b509392505050565b600082601f8301126132785761327761315c565b5b8135613288848260208601613221565b91505092915050565b600080600080608085870312156132ab576132aa612d45565b5b60006132b987828801612f9b565b94505060206132ca87828801612f9b565b93505060406132db87828801612ee6565b925050606085013567ffffffffffffffff8111156132fc576132fb612d4a565b5b61330887828801613263565b91505092959194509250565b6000806040838503121561332b5761332a612d45565b5b600061333985828601612f9b565b925050602061334a85828601612f9b565b9150509250929050565b7f4e487b7100000000000000000000000000000000000000000000000000000000600052602260045260246000fd5b6000600282049050600182168061339b57607f821691505b602082108114156133af576133ae613354565b5b50919050565b7f4552433732313a20617070726f76656420717565727920666f72206e6f6e657860008201527f697374656e7420746f6b656e0000000000000000000000000000000000000000602082015250565b6000613411602c83612e15565b915061341c826133b5565b604082019050919050565b6000602082019050818103600083015261344081613404565b9050919050565b7f4552433732313a20617070726f76616c20746f2063757272656e74206f776e6560008201527f7200000000000000000000000000000000000000000000000000000000000000602082015250565b60006134a3602183612e15565b91506134ae82613447565b604082019050919050565b600060208201905081810360008301526134d281613496565b9050919050565b7f4552433732313a20617070726f76652063616c6c6572206973206e6f74206f7760008201527f6e6572206e6f7220617070726f76656420666f7220616c6c0000000000000000602082015250565b6000613535603883612e15565b9150613540826134d9565b604082019050919050565b6000602082019050818103600083015261356481613528565b9050919050565b7f4552433732313a207472616e736665722063616c6c6572206973206e6f74206f60008201527f776e6572206e6f7220617070726f766564000000000000000000000000000000602082015250565b60006135c7603183612e15565b91506135d28261356b565b604082019050919050565b600060208201905081810360008301526135f6816135ba565b9050919050565b7f455243373231456e756d657261626c653a206f776e657220696e646578206f7560008201527f74206f6620626f756e6473000000000000000000000000000000000000000000602082015250565b6000613659602b83612e15565b9150613664826135fd565b604082019050919050565b600060208201905081810360008301526136888161364c565b9050919050565b7f455243373231456e756d657261626c653a20676c6f62616c20696e646578206f60008201527f7574206f6620626f756e64730000000000000000000000000000000000000000602082015250565b60006136eb602c83612e15565b91506136f68261368f565b604082019050919050565b6000602082019050818103600083015261371a816136de565b9050919050565b7f4e487b7100000000000000000000000000000000000000000000000000000000600052603260045260246000fd5b7f4552433732313a206f776e657220717565727920666f72206e6f6e657869737460008201527f656e7420746f6b656e0000000000000000000000000000000000000000000000602082015250565b60006137ac602983612e15565b91506137b782613750565b604082019050919050565b600060208201905081810360008301526137db8161379f565b9050919050565b7f4552433732313a2062616c616e636520717565727920666f7220746865207a6560008201527f726f206164647265737300000000000000000000000000000000000000000000602082015250565b600061383e602a83612e15565b9150613849826137e2565b604082019050919050565b6000602082019050818103600083015261386d81613831565b9050919050565b7f4f776e61626c653a2063616c6c6572206973206e6f7420746865206f776e6572600082015250565b60006138aa602083612e15565b91506138b582613874565b602082019050919050565b600060208201905081810360008301526138d98161389d565b9050919050565b7f546f6b656e206e6f74206578697374732e000000000000000000000000000000600082015250565b6000613916601183612e15565b9150613921826138e0565b602082019050919050565b6000602082019050818103600083015261394581613909565b9050919050565b600081905092915050565b7f476f72696c6c6120230000000000000000000000000000000000000000000000600082015250565b600061398d60098361394c565b915061399882613957565b600982019050919050565b60006139ae82612e0a565b6139b8818561394c565b93506139c8818560208601612e26565b80840191505092915050565b60006139df82613980565b91506139eb82846139a3565b915081905092915050565b7f476f72696c6c612047616e67202824474f472920697320612067656e6572617460008201527f6976652061727420636f6c6c65637461626c65732c2072616e646f6d6c79206760208201527f656e657261746564207769746820646966666572656e7420747261697473206c60408201527f696b6520636f6c6f722c2065796520616e64206261636b67726f7564732e204560608201527f61636820476f72696c6c61206973206120756e697175652c206e6f6e2d66756e60808201527f6769626c6520746f6b656e20284e465429206f6e20746865204574686572657560a08201527f6d20626c6f636b636861696e2e0000000000000000000000000000000000000060c082015250565b6000613b1060cd8361394c565b9150613b1b826139f6565b60cd82019050919050565b6000613b3182613b03565b9150819050919050565b7f7b226e616d65223a220000000000000000000000000000000000000000000000600082015250565b6000613b7160098361394c565b9150613b7c82613b3b565b600982019050919050565b7f222c20226465736372697074696f6e223a220000000000000000000000000000600082015250565b6000613bbd60128361394c565b9150613bc882613b87565b601282019050919050565b7f222c202261747472696275746573223a205b7b202274726169745f747970652260008201527f3a202266616365222c202276616c7565223a20224861707079227d2c207b227460208201527f726169745f74797065223a2022657965222c202276616c7565223a2022230000604082015250565b6000613c55605e8361394c565b9150613c6082613bd3565b605e82019050919050565b7f227d2c7b2274726169745f74797065223a20226261636b67726f7564222c202260008201527f76616c7565223a20222300000000000000000000000000000000000000000000602082015250565b6000613cc7602a8361394c565b9150613cd282613c6b565b602a82019050919050565b7f227d2c7b2274726169745f74797065223a2022636f6c6f72222c202276616c7560008201527f65223a2022230000000000000000000000000000000000000000000000000000602082015250565b6000613d3960268361394c565b9150613d4482613cdd565b602682019050919050565b7f227d5d2c20226f776e6572223a22000000000000000000000000000000000000600082015250565b6000613d85600e8361394c565b9150613d9082613d4f565b600e82019050919050565b7f222c2022696d616765223a202200000000000000000000000000000000000000600082015250565b6000613dd1600d8361394c565b9150613ddc82613d9b565b600d82019050919050565b7f646174613a696d6167652f7376672b786d6c3b6261736536342c000000000000600082015250565b6000613e1d601a8361394c565b9150613e2882613de7565b601a82019050919050565b7f227d000000000000000000000000000000000000000000000000000000000000600082015250565b6000613e6960028361394c565b9150613e7482613e33565b600282019050919050565b6000613e8a82613b64565b9150613e96828a6139a3565b9150613ea182613bb0565b9150613ead82896139a3565b9150613eb882613c48565b9150613ec482886139a3565b9150613ecf82613cba565b9150613edb82876139a3565b9150613ee682613d2c565b9150613ef282866139a3565b9150613efd82613d78565b9150613f0982856139a3565b9150613f1482613dc4565b9150613f1f82613e10565b9150613f2b82846139a3565b9150613f3682613e5c565b915081905098975050505050505050565b7f646174613a6170706c69636174696f6e2f6a736f6e3b6261736536342c000000600082015250565b6000613f7d601d8361394c565b9150613f8882613f47565b601d82019050919050565b6000613f9e82613f70565b9150613faa82846139a3565b915081905092915050565b7f4d696e74696e6720636f6d706c657465642e0000000000000000000000000000600082015250565b6000613feb601283612e15565b9150613ff682613fb5565b602082019050919050565b6000602082019050818103600083015261401a81613fde565b9050919050565b7f4e487b7100000000000000000000000000000000000000000000000000000000600052601160045260246000fd5b600061405b82612ec5565b915061406683612ec5565b92508282101561407957614078614021565b5b828203905092915050565b6000819050919050565b6000819050919050565b6140a96140a482614084565b61408e565b82525050565b60008160601b9050919050565b60006140c7826140af565b9050919050565b60006140d9826140bc565b9050919050565b6140f16140ec82612f48565b6140ce565b82525050565b6000819050919050565b61411261410d82612ec5565b6140f7565b82525050565b60006141248287614098565b60208201915061413482866140e0565b60148201915061414482856140e0565b6014820191506141548284614101565b60208201915081905095945050505050565b600060408201905061417b6000830185612ff0565b818103602083015261418d8184612e6a565b90509392505050565b7f4f776e61626c653a206e6577206f776e657220697320746865207a65726f206160008201527f6464726573730000000000000000000000000000000000000000000000000000602082015250565b60006141f2602683612e15565b91506141fd82614196565b604082019050919050565b60006020820190508181036000830152614221816141e5565b9050919050565b7f4552433732313a206f70657261746f7220717565727920666f72206e6f6e657860008201527f697374656e7420746f6b656e0000000000000000000000000000000000000000602082015250565b6000614284602c83612e15565b915061428f82614228565b604082019050919050565b600060208201905081810360008301526142b381614277565b9050919050565b7f4552433732313a207472616e73666572206f6620746f6b656e2074686174206960008201527f73206e6f74206f776e0000000000000000000000000000000000000000000000602082015250565b6000614316602983612e15565b9150614321826142ba565b604082019050919050565b6000602082019050818103600083015261434581614309565b9050919050565b7f4552433732313a207472616e7366657220746f20746865207a65726f2061646460008201527f7265737300000000000000000000000000000000000000000000000000000000602082015250565b60006143a8602483612e15565b91506143b38261434c565b604082019050919050565b600060208201905081810360008301526143d78161439b565b9050919050565b60006143e982612ec5565b91506143f483612ec5565b9250827fffffffffffffffffffffffffffffffffffffffffffffffffffffffffffffffff0382111561442957614428614021565b5b828201905092915050565b7f4552433732313a20617070726f766520746f2063616c6c657200000000000000600082015250565b600061446a601983612e15565b915061447582614434565b602082019050919050565b600060208201905081810360008301526144998161445d565b9050919050565b7f4552433732313a207472616e7366657220746f206e6f6e20455243373231526560008201527f63656976657220696d706c656d656e7465720000000000000000000000000000602082015250565b60006144fc603283612e15565b9150614507826144a0565b604082019050919050565b6000602082019050818103600083015261452b816144ef565b9050919050565b600061453d82612ec5565b91507fffffffffffffffffffffffffffffffffffffffffffffffffffffffffffffffff8214156145705761456f614021565b5b600182019050919050565b7f4e487b7100000000000000000000000000000000000000000000000000000000600052601260045260246000fd5b60006145b582612ec5565b91506145c083612ec5565b9250826145d0576145cf61457b565b5b828204905092915050565b60006145e682612ec5565b91506145f183612ec5565b9250826146015761460061457b565b5b828206905092915050565b7f3c7376672077696474683d2235303022206865696768743d223530302220766960008201527f6577426f783d223020302032303020323030222066696c6c3d226e6f6e65222060208201527f786d6c6e733d22687474703a2f2f7777772e77332e6f72672f323030302f737660408201527f67223e0000000000000000000000000000000000000000000000000000000000606082015250565b60006146b460638361394c565b91506146bf8261460c565b606382019050919050565b7f3c2f7376673e0000000000000000000000000000000000000000000000000000600082015250565b600061470060068361394c565b915061470b826146ca565b600682019050919050565b6000614721826146a7565b915061472d82846139a3565b9150614738826146f3565b915081905092915050565b600061474e82612ec5565b915061475983612ec5565b9250817fffffffffffffffffffffffffffffffffffffffffffffffffffffffffffffffff048311821515161561479257614791614021565b5b828202905092915050565b60006147a882612ec5565b915060008214156147bc576147bb614021565b5b600182039050919050565b7f4552433732313a206d696e7420746f20746865207a65726f2061646472657373600082015250565b60006147fd602083612e15565b9150614808826147c7565b602082019050919050565b6000602082019050818103600083015261482c816147f0565b9050919050565b7f4552433732313a20746f6b656e20616c7265616479206d696e74656400000000600082015250565b6000614869601c83612e15565b915061487482614833565b602082019050919050565b600060208201905081810360008301526148988161485c565b9050919050565b600081519050919050565b600082825260208201905092915050565b60006148c68261489f565b6148d081856148aa565b93506148e0818560208601612e26565b6148e981612e59565b840191505092915050565b60006080820190506149096000830187612f5a565b6149166020830186612f5a565b6149236040830185612ff0565b818103606083015261493581846148bb565b905095945050505050565b60008151905061494f81612d7b565b92915050565b60006020828403121561496b5761496a612d45565b5b600061497984828501614940565b91505092915050565b7f3c726563742077696474683d2235303022206865696768743d2235303022206660008201527f696c6c3d22230000000000000000000000000000000000000000000000000000602082015250565b60006149de60268361394c565b91506149e982614982565b602682019050919050565b7f222f3e3c636972636c652063783d223531222063793d223130312220723d223160008201527f36222066696c6c3d2223433443344334222f3e00000000000000000000000000602082015250565b6000614a5060338361394c565b9150614a5b826149f4565b603382019050919050565b7f3c67207374796c653d226d69782d626c656e642d6d6f64653a6d756c7469706c60008201527f79223e3c636972636c652063783d223531222063793d223130312220723d223160208201527f32222066696c6c3d2223433443344334222f3e3c2f673e000000000000000000604082015250565b6000614ae860578361394c565b9150614af382614a66565b605782019050919050565b7f3c636972636c652063783d22313439222063793d223130312220723d2231362260008201527f2066696c6c3d2223433443344334222f3e000000000000000000000000000000602082015250565b6000614b5a60318361394c565b9150614b6582614afe565b603182019050919050565b7f3c67207374796c653d226d69782d626c656e642d6d6f64653a6d756c7469706c60008201527f79223e3c636972636c652063783d22313439222063793d223130312220723d2260208201527f3132222066696c6c3d2223433443344334222f3e3c2f673e0000000000000000604082015250565b6000614bf260588361394c565b9150614bfd82614b70565b605882019050919050565b7f3c7061746820643d224d39372e383432372034302e303631324339372e38303060008201527f312033372e3836362039392e333732342033362e30343832203130312e33353560208201527f2033362e30303039433130332e3333372033352e39353337203130342e39373960408201527f2033372e36393439203130352e3032312033392e383930314c3130352e30383260608201527f2034332e303035334c3130362e3033352034302e31303435433130362e37313360808201527f2033382e30343132203130382e3737342033362e39373734203131302e36333760a08201527f2033372e37323834433131322e352033382e34373933203131332e343631203460c08201527f302e37363037203131322e3738332034322e3832344c3130392e35303820353260e08201527f2e37383632433130382e38332035342e38343935203130362e37372035352e396101008201527f313333203130342e3930372035352e31363233433130342e33312035342e39326101208201527f3139203130332e3830362035342e35323436203130332e3431392035342e30326101408201527f3738433130322e3931362035342e33343636203130322e3333362035342e35336101608201527f3437203130312e3731352035342e35343935433130312e3230372035342e35366101808201527f3136203130302e3732312035342e34353631203130302e3237392035342e32356101a08201527f35364339392e393438312035352e333736392039392e3137322035362e3332346101c08201527f342039382e303933342035362e373539324339362e323330322035372e3531306101e08201527f312039342e31372035362e343436332039332e343931392035342e3338334c396102008201527f302e323137352034342e343230384338392e353339332034322e3335373520396102208201527f302e352034302e303736312039322e333633322033392e333235324339342e326102408201527f3236342033382e353734322039362e323836362033392e3633382039362e39366102608201527f34372034312e373031334c39372e393331382034342e363433374c39372e38346102808201527f32372034302e303631325a222066696c6c3d2223333933393339222f3e0000006102a082015250565b6000614f6b6102bd8361394c565b9150614f7682614c08565b6102bd82019050919050565b7f3c7061746820643d224d35332e333039392039332e313937324335322e30353360008201527f332036382e303635322037322e303931352034372039372e323535203437483160208201527f30342e323831433132392e363138203437203134392e3731392036382e33343360408201527f39203134382e3230322039332e363335324c3134382039374c3134382e39303960608201527f203131372e303032433135302e303438203134322e303631203133302e30333960808201527f20313633203130342e393535203136334839362e363938324337312e3734343560a08201527f203136332035312e37383532203134322e32372035322e37323938203131372e60c08201527f3333354c35332e352039374c35332e333039392039332e313937325a2220666960e08201527f6c6c3d2223333933393339222f3e00000000000000000000000000000000000061010082015250565b60006150ea61010e8361394c565b91506150f582614f82565b61010e82019050919050565b7f3c706174682066696c6c2d72756c653d226576656e6f64642220636c69702d7260008201527f756c653d226576656e6f64642220643d224d37322e30393431203130342e353860208201527f324337322e36323832203130342e3131352037322e36333739203130332e323760408201527f342037322e31323338203130322e3738354336382e333531332039392e31393260608201527f332036362039342e313230372036362038382e354336362037372e363037382060808201527f37342e38332036382e373737382038352e373232322036382e3737373843393160a08201527f2e363430392036382e373737382039362e393530362037312e3338352031303060c08201527f2e3536362037352e35313334433130312e3035342037362e303731372031303160e08201527f2e3934362037362e30373137203130322e3433342037352e35313334433130366101008201527f2e3034392037312e333835203131312e3335392036382e37373738203131372e6101208201527f3237382036382e37373738433132382e31372036382e373737382031333720376101408201527f372e36303738203133372038382e35433133372039342e31323739203133342e6101608201527f3634332039392e32303532203133302e383632203130322e373938433133302e6101808201527f333437203130332e323838203133302e333536203130342e313239203133302e6101a08201527f3839203130342e353937433133362e343734203130392e3438352031343020316101c08201527f31362e36363620313430203132342e363743313430203133372e3334372031336101e08201527f312e313032203134382e353537203131382e35303720313530433130362e37326102008201527f32203135312e33352039362e33333134203135312e3332362038342e353530336102208201527f203134392e3937314337312e39333836203134382e353139203633203133372e6102408201527f333134203633203132342e363139433633203131362e3632392036362e3532306102608201527f31203130392e3436312037322e30393431203130342e3538325a222066696c6c6102808201527f3d222300000000000000000000000000000000000000000000000000000000006102a082015250565b60006154646102a38361394c565b915061546f82615101565b6102a382019050919050565b7f222f3e3c706174682066696c6c2d72756c653d226576656e6f64642220636c6960008201527f702d72756c653d226576656e6f64642220643d224d3133392e3831203132312e60208201527f343732433133392e393336203132322e353220313430203132332e353838203160408201527f3430203132342e363743313430203133372e333438203133312e31303220313460608201527f382e353537203131382e35303720313530433130362e373232203135312e333560808201527f2039362e33333134203135312e3332362038342e35353033203134392e39373160a08201527f4337312e39333836203134382e353139203633203133372e333134203633203160c08201527f32342e363139433633203132342e3036312036332e30313732203132332e353060e08201527f372036332e303531203132322e3935374337302e38333933203131322e3232316101008201527f2038352e33363536203130352031303220313035433131372e383535203130356101208201527f203133312e373935203131312e3536203133392e3831203132312e3437325a226101408201527f2066696c6c3d2223433443344334222f3e00000000000000000000000000000061016082015250565b60006156586101718361394c565b91506156638261547b565b61017182019050919050565b7f3c636972636c652063783d223833222063793d2238352220723d22313122206660008201527f696c6c3d227768697465222f3e00000000000000000000000000000000000000602082015250565b60006156cb602d8361394c565b91506156d68261566f565b602d82019050919050565b7f3c636972636c652063783d223833222063793d2238352220723d22372e33333360008201527f3333222066696c6c3d2223000000000000000000000000000000000000000000602082015250565b600061573d602b8361394c565b9150615748826156e1565b602b82019050919050565b7f222f3e3c636972636c652063783d2238352e3735222063793d2238322e38363160008201527f322220723d22322e3735222066696c6c3d227768697465222f3e000000000000602082015250565b60006157af603a8361394c565b91506157ba82615753565b603a82019050919050565b7f3c636972636c652063783d22313139222063793d2238352220723d223131222060008201527f66696c6c3d227768697465222f3e000000000000000000000000000000000000602082015250565b6000615821602e8361394c565b915061582c826157c5565b602e82019050919050565b7f3c636972636c652063783d22313139222063793d2238352220723d22372e333360008201527f333333222066696c6c3d22230000000000000000000000000000000000000000602082015250565b6000615893602c8361394c565b915061589e82615837565b602c82019050919050565b7f222f3e3c636972636c652063783d223132312e3735222063793d2238322e383660008201527f31322220723d22322e3735222066696c6c3d227768697465222f3e0000000000602082015250565b6000615905603b8361394c565b9150615910826158a9565b603b82019050919050565b7f3c656c6c697073652063783d223837222063793d22313139222072783d22332260008201527f2072793d2234222066696c6c3d2223333933393339222f3e0000000000000000602082015250565b600061597760388361394c565b91506159828261591b565b603882019050919050565b7f3c656c6c697073652063783d22313136222063793d22313139222072783d223360008201527f222072793d2234222066696c6c3d2223333933393339222f3e00000000000000602082015250565b60006159e960398361394c565b91506159f48261598d565b603982019050919050565b7f3c7061746820643d224d3838203133324339322e37323733203134302031303960008201527f2e35333520313430203131342031333222207374726f6b653d2223333933393360208201527f3922207374726f6b652d77696474683d223222207374726f6b652d6c696e656360408201527f61703d22726f756e6422207374726f6b652d6c696e656a6f696e3d22726f756e60608201527f64222f3e00000000000000000000000000000000000000000000000000000000608082015250565b6000615acd60848361394c565b9150615ad8826159ff565b608482019050919050565b6000615aee826149d1565b9150615afa82876139a3565b9150615b0582614a43565b9150615b1082614adb565b9150615b1b82614b4d565b9150615b2682614be5565b9150615b3182614f5d565b9150615b3c826150dc565b9150615b4782615456565b9150615b5382866139a3565b9150615b5e8261564a565b9150615b69826156be565b9150615b7482615730565b9150615b8082856139a3565b9150615b8b826157a2565b9150615b9682615814565b9150615ba182615886565b9150615bad82846139a3565b9150615bb8826158f8565b9150615bc38261596a565b9150615bce826159dc565b9150615bd982615ac0565b915081905095945050505050565b7f4e487b7100000000000000000000000000000000000000000000000000000000600052603160045260246000fdfe4142434445464748494a4b4c4d4e4f505152535455565758595a6162636465666768696a6b6c6d6e6f707172737475767778797a303132333435363738392b2fa2646970667358221220315b6223befeb82293f1d2d899fcb26dcb0d0696e323b26303cc603c1ce6eead64736f6c63430008090033",
  "linkReferences": {},
  "deployedLinkReferences": {}
}