{
  "_format": "hh-sol-artifact-1",
  "contractName": "GOG",
  "sourceName": "contracts/GOG.sol",
  "abi": [
    {
      "inputs": [],
      "stateMutability": "nonpayable",
      "type": "constructor"
    },
    {
      "anonymous": false,
      "inputs": [
        {
          "indexed": true,
          "internalType": "address",
          "name": "owner",
          "type": "address"
        },
        {
          "indexed": true,
          "internalType": "address",
          "name": "approved",
          "type": "address"
        },
        {
          "indexed": true,
          "internalType": "uint256",
          "name": "tokenId",
          "type": "uint256"
        }
      ],
      "name": "Approval",
      "type": "event"
    },
    {
      "anonymous": false,
      "inputs": [
        {
          "indexed": true,
          "internalType": "address",
          "name": "owner",
          "type": "address"
        },
        {
          "indexed": true,
          "internalType": "address",
          "name": "operator",
          "type": "address"
        },
        {
          "indexed": false,
          "internalType": "bool",
          "name": "approved",
          "type": "bool"
        }
      ],
      "name": "ApprovalForAll",
      "type": "event"
    },
    {
      "anonymous": false,
      "inputs": [
        {
          "indexed": false,
          "internalType": "uint256",
          "name": "id",
          "type": "uint256"
        },
        {
          "indexed": false,
          "internalType": "string",
          "name": "metadata",
          "type": "string"
        }
      ],
      "name": "GorillaMinted",
      "type": "event"
    },
    {
      "anonymous": false,
      "inputs": [
        {
          "indexed": true,
          "internalType": "address",
          "name": "previousOwner",
          "type": "address"
        },
        {
          "indexed": true,
          "internalType": "address",
          "name": "newOwner",
          "type": "address"
        }
      ],
      "name": "OwnershipTransferred",
      "type": "event"
    },
    {
      "anonymous": false,
      "inputs": [
        {
          "indexed": true,
          "internalType": "address",
          "name": "from",
          "type": "address"
        },
        {
          "indexed": true,
          "internalType": "address",
          "name": "to",
          "type": "address"
        },
        {
          "indexed": true,
          "internalType": "uint256",
          "name": "tokenId",
          "type": "uint256"
        }
      ],
      "name": "Transfer",
      "type": "event"
    },
    {
      "inputs": [
        {
          "internalType": "address",
          "name": "to",
          "type": "address"
        },
        {
          "internalType": "uint256",
          "name": "tokenId",
          "type": "uint256"
        }
      ],
      "name": "approve",
      "outputs": [],
      "stateMutability": "nonpayable",
      "type": "function"
    },
    {
      "inputs": [
        {
          "internalType": "address",
          "name": "owner",
          "type": "address"
        }
      ],
      "name": "balanceOf",
      "outputs": [
        {
          "internalType": "uint256",
          "name": "",
          "type": "uint256"
        }
      ],
      "stateMutability": "view",
      "type": "function"
    },
    {
      "inputs": [
        {
          "internalType": "uint256",
          "name": "",
          "type": "uint256"
        }
      ],
      "name": "bgColor",
      "outputs": [
        {
          "internalType": "bytes3",
          "name": "",
          "type": "bytes3"
        }
      ],
      "stateMutability": "view",
      "type": "function"
    },
    {
      "inputs": [
        {
          "internalType": "uint256",
          "name": "",
          "type": "uint256"
        }
      ],
      "name": "color",
      "outputs": [
        {
          "internalType": "bytes3",
          "name": "",
          "type": "bytes3"
        }
      ],
      "stateMutability": "view",
      "type": "function"
    },
    {
      "inputs": [
        {
          "internalType": "uint256",
          "name": "",
          "type": "uint256"
        }
      ],
      "name": "eyeColor",
      "outputs": [
        {
          "internalType": "bytes3",
          "name": "",
          "type": "bytes3"
        }
      ],
      "stateMutability": "view",
      "type": "function"
    },
    {
      "inputs": [
        {
          "internalType": "uint256",
          "name": "tokenId",
          "type": "uint256"
        }
      ],
      "name": "getApproved",
      "outputs": [
        {
          "internalType": "address",
          "name": "",
          "type": "address"
        }
      ],
      "stateMutability": "view",
      "type": "function"
    },
    {
      "inputs": [
        {
          "internalType": "address",
          "name": "owner",
          "type": "address"
        },
        {
          "internalType": "address",
          "name": "operator",
          "type": "address"
        }
      ],
      "name": "isApprovedForAll",
      "outputs": [
        {
          "internalType": "bool",
          "name": "",
          "type": "bool"
        }
      ],
      "stateMutability": "view",
      "type": "function"
    },
    {
      "inputs": [],
      "name": "mintDeadline",
      "outputs": [
        {
          "internalType": "uint256",
          "name": "",
          "type": "uint256"
        }
      ],
      "stateMutability": "view",
      "type": "function"
    },
    {
      "inputs": [],
      "name": "mintItem",
      "outputs": [
        {
          "internalType": "uint256",
          "name": "",
          "type": "uint256"
        }
      ],
      "stateMutability": "nonpayable",
      "type": "function"
    },
    {
      "inputs": [],
      "name": "name",
      "outputs": [
        {
          "internalType": "string",
          "name": "",
          "type": "string"
        }
      ],
      "stateMutability": "view",
      "type": "function"
    },
    {
      "inputs": [],
      "name": "owner",
      "outputs": [
        {
          "internalType": "address",
          "name": "",
          "type": "address"
        }
      ],
      "stateMutability": "view",
      "type": "function"
    },
    {
      "inputs": [
        {
          "internalType": "uint256",
          "name": "tokenId",
          "type": "uint256"
        }
      ],
      "name": "ownerOf",
      "outputs": [
        {
          "internalType": "address",
          "name": "",
          "type": "address"
        }
      ],
      "stateMutability": "view",
      "type": "function"
    },
    {
      "inputs": [],
      "name": "renounceOwnership",
      "outputs": [],
      "stateMutability": "nonpayable",
      "type": "function"
    },
    {
      "inputs": [
        {
          "internalType": "address",
          "name": "from",
          "type": "address"
        },
        {
          "internalType": "address",
          "name": "to",
          "type": "address"
        },
        {
          "internalType": "uint256",
          "name": "tokenId",
          "type": "uint256"
        }
      ],
      "name": "safeTransferFrom",
      "outputs": [],
      "stateMutability": "nonpayable",
      "type": "function"
    },
    {
      "inputs": [
        {
          "internalType": "address",
          "name": "from",
          "type": "address"
        },
        {
          "internalType": "address",
          "name": "to",
          "type": "address"
        },
        {
          "internalType": "uint256",
          "name": "tokenId",
          "type": "uint256"
        },
        {
          "internalType": "bytes",
          "name": "_data",
          "type": "bytes"
        }
      ],
      "name": "safeTransferFrom",
      "outputs": [],
      "stateMutability": "nonpayable",
      "type": "function"
    },
    {
      "inputs": [
        {
          "internalType": "address",
          "name": "operator",
          "type": "address"
        },
        {
          "internalType": "bool",
          "name": "approved",
          "type": "bool"
        }
      ],
      "name": "setApprovalForAll",
      "outputs": [],
      "stateMutability": "nonpayable",
      "type": "function"
    },
    {
      "inputs": [
        {
          "internalType": "bytes4",
          "name": "interfaceId",
          "type": "bytes4"
        }
      ],
      "name": "supportsInterface",
      "outputs": [
        {
          "internalType": "bool",
          "name": "",
          "type": "bool"
        }
      ],
      "stateMutability": "view",
      "type": "function"
    },
    {
      "inputs": [],
      "name": "symbol",
      "outputs": [
        {
          "internalType": "string",
          "name": "",
          "type": "string"
        }
      ],
      "stateMutability": "view",
      "type": "function"
    },
    {
      "inputs": [
        {
          "internalType": "uint256",
          "name": "index",
          "type": "uint256"
        }
      ],
      "name": "tokenByIndex",
      "outputs": [
        {
          "internalType": "uint256",
          "name": "",
          "type": "uint256"
        }
      ],
      "stateMutability": "view",
      "type": "function"
    },
    {
      "inputs": [
        {
          "internalType": "address",
          "name": "owner",
          "type": "address"
        },
        {
          "internalType": "uint256",
          "name": "index",
          "type": "uint256"
        }
      ],
      "name": "tokenOfOwnerByIndex",
      "outputs": [
        {
          "internalType": "uint256",
          "name": "",
          "type": "uint256"
        }
      ],
      "stateMutability": "view",
      "type": "function"
    },
    {
      "inputs": [
        {
          "internalType": "uint256",
          "name": "id",
          "type": "uint256"
        }
      ],
      "name": "tokenURI",
      "outputs": [
        {
          "internalType": "string",
          "name": "",
          "type": "string"
        }
      ],
      "stateMutability": "view",
      "type": "function"
    },
    {
      "inputs": [],
      "name": "totalSupply",
      "outputs": [
        {
          "internalType": "uint256",
          "name": "",
          "type": "uint256"
        }
      ],
      "stateMutability": "view",
      "type": "function"
    },
    {
      "inputs": [
        {
          "internalType": "address",
          "name": "from",
          "type": "address"
        },
        {
          "internalType": "address",
          "name": "to",
          "type": "address"
        },
        {
          "internalType": "uint256",
          "name": "tokenId",
          "type": "uint256"
        }
      ],
      "name": "transferFrom",
      "outputs": [],
      "stateMutability": "nonpayable",
      "type": "function"
    },
    {
      "inputs": [
        {
          "internalType": "address",
          "name": "newOwner",
          "type": "address"
        }
      ],
      "name": "transferOwnership",
      "outputs": [],
      "stateMutability": "nonpayable",
      "type": "function"
    }
  ],
  "bytecode": "0x60806040526202a30042620000159190620002a3565b600f553480156200002557600080fd5b506040518060400160405280600c81526020017f476f72696c6c612047616e6700000000000000000000000000000000000000008152506040518060400160405280600381526020017f474f4700000000000000000000000000000000000000000000000000000000008152508160009080519060200190620000aa929190620001ba565b508060019080519060200190620000c3929190620001ba565b505050620000e6620000da620000ec60201b60201c565b620000f460201b60201c565b62000365565b600033905090565b6000600a60009054906101000a900473ffffffffffffffffffffffffffffffffffffffff16905081600a60006101000a81548173ffffffffffffffffffffffffffffffffffffffff021916908373ffffffffffffffffffffffffffffffffffffffff1602179055508173ffffffffffffffffffffffffffffffffffffffff168173ffffffffffffffffffffffffffffffffffffffff167f8be0079c531659141344cd1fd0a4f28419497f9722a3daafe3b4186f6b6457e060405160405180910390a35050565b828054620001c8906200032f565b90600052602060002090601f016020900481019282620001ec576000855562000238565b82601f106200020757805160ff191683800117855562000238565b8280016001018555821562000238579182015b82811115620002375782518255916020019190600101906200021a565b5b5090506200024791906200024b565b5090565b5b80821115620002665760008160009055506001016200024c565b5090565b6000819050919050565b7f4e487b7100000000000000000000000000000000000000000000000000000000600052601160045260246000fd5b6000620002b0826200026a565b9150620002bd836200026a565b9250827fffffffffffffffffffffffffffffffffffffffffffffffffffffffffffffffff03821115620002f557620002f462000274565b5b828201905092915050565b7f4e487b7100000000000000000000000000000000000000000000000000000000600052602260045260246000fd5b600060028204905060018216806200034857607f821691505b602082108114156200035f576200035e62000300565b5b50919050565b615c8c80620003756000396000f3fe608060405234801561001057600080fd5b50600436106101585760003560e01c8063715018a6116100c3578063c87b56dd1161007c578063c87b56dd146103eb578063d4e28c9c1461041b578063d4e780861461044b578063e985e9c514610469578063eb93406b14610499578063f2fde38b146104b757610158565b8063715018a61461033d5780638da5cb5b1461034757806395d89b4114610365578063969e4b8d14610383578063a22cb465146103b3578063b88d4fde146103cf57610158565b80632f745c59116101155780632f745c591461023157806342842e0e146102615780634f6ccce71461027d578063608ef2e4146102ad5780636352211e146102dd57806370a082311461030d57610158565b806301ffc9a71461015d57806306fdde031461018d578063081812fc146101ab578063095ea7b3146101db57806318160ddd146101f757806323b872dd14610215575b600080fd5b61017760048036038101906101729190612dcd565b6104d3565b6040516101849190612e15565b60405180910390f35b61019561054d565b6040516101a29190612ec9565b60405180910390f35b6101c560048036038101906101c09190612f21565b6105df565b6040516101d29190612f8f565b60405180910390f35b6101f560048036038101906101f09190612fd6565b610664565b005b6101ff61077c565b60405161020c9190613025565b60405180910390f35b61022f600480360381019061022a9190613040565b610789565b005b61024b60048036038101906102469190612fd6565b6107e9565b6040516102589190613025565b60405180910390f35b61027b60048036038101906102769190613040565b61088e565b005b61029760048036038101906102929190612f21565b6108ae565b6040516102a49190613025565b60405180910390f35b6102c760048036038101906102c29190612f21565b61091f565b6040516102d491906130ce565b60405180910390f35b6102f760048036038101906102f29190612f21565b61093f565b6040516103049190612f8f565b60405180910390f35b610327600480360381019061032291906130e9565b6109f1565b6040516103349190613025565b60405180910390f35b610345610aa9565b005b61034f610b31565b60405161035c9190612f8f565b60405180910390f35b61036d610b5b565b60405161037a9190612ec9565b60405180910390f35b61039d60048036038101906103989190612f21565b610bed565b6040516103aa91906130ce565b60405180910390f35b6103cd60048036038101906103c89190613142565b610c0d565b005b6103e960048036038101906103e491906132b7565b610c23565b005b61040560048036038101906104009190612f21565b610c85565b6040516104129190612ec9565b60405180910390f35b61043560048036038101906104309190612f21565b610e98565b60405161044291906130ce565b60405180910390f35b610453610eb8565b6040516104609190613025565b60405180910390f35b610483600480360381019061047e919061333a565b610ebe565b6040516104909190612e15565b60405180910390f35b6104a1610f52565b6040516104ae9190613025565b60405180910390f35b6104d160048036038101906104cc91906130e9565b611416565b005b60007f780e9d63000000000000000000000000000000000000000000000000000000007bffffffffffffffffffffffffffffffffffffffffffffffffffffffff1916827bffffffffffffffffffffffffffffffffffffffffffffffffffffffff1916148061054657506105458261150e565b5b9050919050565b60606000805461055c906133a9565b80601f0160208091040260200160405190810160405280929190818152602001828054610588906133a9565b80156105d55780601f106105aa576101008083540402835291602001916105d5565b820191906000526020600020905b8154815290600101906020018083116105b857829003601f168201915b5050505050905090565b60006105ea826115f0565b610629576040517f08c379a00000000000000000000000000000000000000000000000000000000081526004016106209061344d565b60405180910390fd5b6004600083815260200190815260200160002060009054906101000a900473ffffffffffffffffffffffffffffffffffffffff169050919050565b600061066f8261093f565b90508073ffffffffffffffffffffffffffffffffffffffff168373ffffffffffffffffffffffffffffffffffffffff1614156106e0576040517f08c379a00000000000000000000000000000000000000000000000000000000081526004016106d7906134df565b60405180910390fd5b8073ffffffffffffffffffffffffffffffffffffffff166106ff61165c565b73ffffffffffffffffffffffffffffffffffffffff16148061072e575061072d8161072861165c565b610ebe565b5b61076d576040517f08c379a000000000000000000000000000000000000000000000000000000000815260040161076490613571565b60405180910390fd5b6107778383611664565b505050565b6000600880549050905090565b61079a61079461165c565b8261171d565b6107d9576040517f08c379a00000000000000000000000000000000000000000000000000000000081526004016107d090613603565b60405180910390fd5b6107e48383836117fb565b505050565b60006107f4836109f1565b8210610835576040517f08c379a000000000000000000000000000000000000000000000000000000000815260040161082c90613695565b60405180910390fd5b600660008473ffffffffffffffffffffffffffffffffffffffff1673ffffffffffffffffffffffffffffffffffffffff168152602001908152602001600020600083815260200190815260200160002054905092915050565b6108a983838360405180602001604052806000815250610c23565b505050565b60006108b861077c565b82106108f9576040517f08c379a00000000000000000000000000000000000000000000000000000000081526004016108f090613727565b60405180910390fd5b6008828154811061090d5761090c613747565b5b90600052602060002001549050919050565b600c6020528060005260406000206000915054906101000a900460e81b81565b6000806002600084815260200190815260200160002060009054906101000a900473ffffffffffffffffffffffffffffffffffffffff169050600073ffffffffffffffffffffffffffffffffffffffff168173ffffffffffffffffffffffffffffffffffffffff1614156109e8576040517f08c379a00000000000000000000000000000000000000000000000000000000081526004016109df906137e8565b60405180910390fd5b80915050919050565b60008073ffffffffffffffffffffffffffffffffffffffff168273ffffffffffffffffffffffffffffffffffffffff161415610a62576040517f08c379a0000000000000000000000000000000000000000000000000000000008152600401610a599061387a565b60405180910390fd5b600360008373ffffffffffffffffffffffffffffffffffffffff1673ffffffffffffffffffffffffffffffffffffffff168152602001908152602001600020549050919050565b610ab161165c565b73ffffffffffffffffffffffffffffffffffffffff16610acf610b31565b73ffffffffffffffffffffffffffffffffffffffff1614610b25576040517f08c379a0000000000000000000000000000000000000000000000000000000008152600401610b1c906138e6565b60405180910390fd5b610b2f6000611a57565b565b6000600a60009054906101000a900473ffffffffffffffffffffffffffffffffffffffff16905090565b606060018054610b6a906133a9565b80601f0160208091040260200160405190810160405280929190818152602001828054610b96906133a9565b8015610be35780601f10610bb857610100808354040283529160200191610be3565b820191906000526020600020905b815481529060010190602001808311610bc657829003601f168201915b5050505050905090565b600d6020528060005260406000206000915054906101000a900460e81b81565b610c1f610c1861165c565b8383611b1d565b5050565b610c34610c2e61165c565b8361171d565b610c73576040517f08c379a0000000000000000000000000000000000000000000000000000000008152600401610c6a90613603565b60405180910390fd5b610c7f84848484611c8a565b50505050565b6060610c90826115f0565b610ccf576040517f08c379a0000000000000000000000000000000000000000000000000000000008152600401610cc690613952565b60405180910390fd5b6000610cda83611ce6565b604051602001610cea91906139fa565b60405160208183030381529060405290506000604051602001610d0c90613b4c565b60405160208183030381529060405290506000610d30610d2b86611e47565b611e7e565b9050610e6f8383610d80600d60008a815260200190815260200160002060009054906101000a900460e81b7cffffffffffffffffffffffffffffffffffffffffffffffffffffffffff1916611ff7565b610dc9600c60008b815260200190815260200160002060009054906101000a900460e81b7cffffffffffffffffffffffffffffffffffffffffffffffffffffffffff1916611ff7565b610e12600e60008c815260200190815260200160002060009054906101000a900460e81b7cffffffffffffffffffffffffffffffffffffffffffffffffffffffffff1916611ff7565b610e446014610e208d61093f565b73ffffffffffffffffffffffffffffffffffffffff166121ee90919063ffffffff16565b87604051602001610e5b9796959493929190613e7f565b604051602081830303815290604052611e7e565b604051602001610e7f9190613f93565b6040516020818303038152906040529350505050919050565b600e6020528060005260406000206000915054906101000a900460e81b81565b600f5481565b6000600560008473ffffffffffffffffffffffffffffffffffffffff1673ffffffffffffffffffffffffffffffffffffffff16815260200190815260200160002060008373ffffffffffffffffffffffffffffffffffffffff1673ffffffffffffffffffffffffffffffffffffffff16815260200190815260200160002060009054906101000a900460ff16905092915050565b6000600f544210610f98576040517f08c379a0000000000000000000000000000000000000000000000000000000008152600401610f8f90614001565b60405180910390fd5b610fa2600b6123e7565b6000610fae600b6123fd565b9050610fba338261240b565b6000600143610fc99190614050565b40333084604051602001610fe09493929190614118565b60405160208183030381529060405280519060200120905060108160026020811061100e5761100d613747565b5b1a60f81b7effffffffffffffffffffffffffffffffffffffffffffffffffffffffffffff19167cffffffffffffffffffffffffffffffffffffffffffffffffffffffffff1916901c60088260016020811061106c5761106b613747565b5b1a60f81b7effffffffffffffffffffffffffffffffffffffffffffffffffffffffffffff19167dffffffffffffffffffffffffffffffffffffffffffffffffffffffffffff1916901c826000602081106110c9576110c8613747565b5b1a60f81b7effffffffffffffffffffffffffffffffffffffffffffffffffffffffffffff1916177dffffffffffffffffffffffffffffffffffffffffffffffffffffffffffff191617600d600084815260200190815260200160002060006101000a81548162ffffff021916908360e81c021790555060108160056020811061115557611154613747565b5b1a60f81b7effffffffffffffffffffffffffffffffffffffffffffffffffffffffffffff19167cffffffffffffffffffffffffffffffffffffffffffffffffffffffffff1916901c6008826004602081106111b3576111b2613747565b5b1a60f81b7effffffffffffffffffffffffffffffffffffffffffffffffffffffffffffff19167dffffffffffffffffffffffffffffffffffffffffffffffffffffffffffff1916901c826003602081106112105761120f613747565b5b1a60f81b7effffffffffffffffffffffffffffffffffffffffffffffffffffffffffffff1916177dffffffffffffffffffffffffffffffffffffffffffffffffffffffffffff191617600c600084815260200190815260200160002060006101000a81548162ffffff021916908360e81c021790555060108160076020811061129c5761129b613747565b5b1a60f81b7effffffffffffffffffffffffffffffffffffffffffffffffffffffffffffff19167cffffffffffffffffffffffffffffffffffffffffffffffffffffffffff1916901c6008826007602081106112fa576112f9613747565b5b1a60f81b7effffffffffffffffffffffffffffffffffffffffffffffffffffffffffffff19167dffffffffffffffffffffffffffffffffffffffffffffffffffffffffffff1916901c8260066020811061135757611356613747565b5b1a60f81b7effffffffffffffffffffffffffffffffffffffffffffffffffffffffffffff1916177dffffffffffffffffffffffffffffffffffffffffffffffffffffffffffff191617600e600084815260200190815260200160002060006101000a81548162ffffff021916908360e81c02179055507fdde7012490bfe65b81a7fb88cee7679b8a15e4af474c7c100dcfaa39633e9231826113f884610c85565b604051611406929190614166565b60405180910390a1819250505090565b61141e61165c565b73ffffffffffffffffffffffffffffffffffffffff1661143c610b31565b73ffffffffffffffffffffffffffffffffffffffff1614611492576040517f08c379a0000000000000000000000000000000000000000000000000000000008152600401611489906138e6565b60405180910390fd5b600073ffffffffffffffffffffffffffffffffffffffff168173ffffffffffffffffffffffffffffffffffffffff161415611502576040517f08c379a00000000000000000000000000000000000000000000000000000000081526004016114f990614208565b60405180910390fd5b61150b81611a57565b50565b60007f80ac58cd000000000000000000000000000000000000000000000000000000007bffffffffffffffffffffffffffffffffffffffffffffffffffffffff1916827bffffffffffffffffffffffffffffffffffffffffffffffffffffffff191614806115d957507f5b5e139f000000000000000000000000000000000000000000000000000000007bffffffffffffffffffffffffffffffffffffffffffffffffffffffff1916827bffffffffffffffffffffffffffffffffffffffffffffffffffffffff1916145b806115e957506115e8826125d9565b5b9050919050565b60008073ffffffffffffffffffffffffffffffffffffffff166002600084815260200190815260200160002060009054906101000a900473ffffffffffffffffffffffffffffffffffffffff1673ffffffffffffffffffffffffffffffffffffffff1614159050919050565b600033905090565b816004600083815260200190815260200160002060006101000a81548173ffffffffffffffffffffffffffffffffffffffff021916908373ffffffffffffffffffffffffffffffffffffffff160217905550808273ffffffffffffffffffffffffffffffffffffffff166116d78361093f565b73ffffffffffffffffffffffffffffffffffffffff167f8c5be1e5ebec7d5bd14f71427d1e84f3dd0314c0f7b2291e5b200ac8c7c3b92560405160405180910390a45050565b6000611728826115f0565b611767576040517f08c379a000000000000000000000000000000000000000000000000000000000815260040161175e9061429a565b60405180910390fd5b60006117728361093f565b90508073ffffffffffffffffffffffffffffffffffffffff168473ffffffffffffffffffffffffffffffffffffffff1614806117e157508373ffffffffffffffffffffffffffffffffffffffff166117c9846105df565b73ffffffffffffffffffffffffffffffffffffffff16145b806117f257506117f18185610ebe565b5b91505092915050565b8273ffffffffffffffffffffffffffffffffffffffff1661181b8261093f565b73ffffffffffffffffffffffffffffffffffffffff1614611871576040517f08c379a00000000000000000000000000000000000000000000000000000000081526004016118689061432c565b60405180910390fd5b600073ffffffffffffffffffffffffffffffffffffffff168273ffffffffffffffffffffffffffffffffffffffff1614156118e1576040517f08c379a00000000000000000000000000000000000000000000000000000000081526004016118d8906143be565b60405180910390fd5b6118ec838383612643565b6118f7600082611664565b6001600360008573ffffffffffffffffffffffffffffffffffffffff1673ffffffffffffffffffffffffffffffffffffffff16815260200190815260200160002060008282546119479190614050565b925050819055506001600360008473ffffffffffffffffffffffffffffffffffffffff1673ffffffffffffffffffffffffffffffffffffffff168152602001908152602001600020600082825461199e91906143de565b92505081905550816002600083815260200190815260200160002060006101000a81548173ffffffffffffffffffffffffffffffffffffffff021916908373ffffffffffffffffffffffffffffffffffffffff160217905550808273ffffffffffffffffffffffffffffffffffffffff168473ffffffffffffffffffffffffffffffffffffffff167fddf252ad1be2c89b69c2b068fc378daa952ba7f163c4a11628f55a4df523b3ef60405160405180910390a4505050565b6000600a60009054906101000a900473ffffffffffffffffffffffffffffffffffffffff16905081600a60006101000a81548173ffffffffffffffffffffffffffffffffffffffff021916908373ffffffffffffffffffffffffffffffffffffffff1602179055508173ffffffffffffffffffffffffffffffffffffffff168173ffffffffffffffffffffffffffffffffffffffff167f8be0079c531659141344cd1fd0a4f28419497f9722a3daafe3b4186f6b6457e060405160405180910390a35050565b8173ffffffffffffffffffffffffffffffffffffffff168373ffffffffffffffffffffffffffffffffffffffff161415611b8c576040517f08c379a0000000000000000000000000000000000000000000000000000000008152600401611b8390614480565b60405180910390fd5b80600560008573ffffffffffffffffffffffffffffffffffffffff1673ffffffffffffffffffffffffffffffffffffffff16815260200190815260200160002060008473ffffffffffffffffffffffffffffffffffffffff1673ffffffffffffffffffffffffffffffffffffffff16815260200190815260200160002060006101000a81548160ff0219169083151502179055508173ffffffffffffffffffffffffffffffffffffffff168373ffffffffffffffffffffffffffffffffffffffff167f17307eab39ab6107e8899845ad3d59bd9653f200f220920489ca2b5937696c3183604051611c7d9190612e15565b60405180910390a3505050565b611c958484846117fb565b611ca184848484612757565b611ce0576040517f08c379a0000000000000000000000000000000000000000000000000000000008152600401611cd790614512565b60405180910390fd5b50505050565b60606000821415611d2e576040518060400160405280600181526020017f30000000000000000000000000000000000000000000000000000000000000008152509050611e42565b600082905060005b60008214611d60578080611d4990614532565b915050600a82611d5991906145aa565b9150611d36565b60008167ffffffffffffffff811115611d7c57611d7b61318c565b5b6040519080825280601f01601f191660200182016040528015611dae5781602001600182028036833780820191505090505b5090505b60008514611e3b57600182611dc79190614050565b9150600a85611dd691906145db565b6030611de291906143de565b60f81b818381518110611df857611df7613747565b5b60200101907effffffffffffffffffffffffffffffffffffffffffffffffffffffffffffff1916908160001a905350600a85611e3491906145aa565b9450611db2565b8093505050505b919050565b60606000611e54836128ee565b604051602001611e649190614716565b604051602081830303815290604052905080915050919050565b6060600082511415611ea157604051806020016040528060008152509050611ff2565b6000604051806060016040528060408152602001615c176040913990506000600360028551611ed091906143de565b611eda91906145aa565b6004611ee69190614743565b90506000602082611ef791906143de565b67ffffffffffffffff811115611f1057611f0f61318c565b5b6040519080825280601f01601f191660200182016040528015611f425781602001600182028036833780820191505090505b509050818152600183018586518101602084015b81831015611fb1576003830192508251603f8160121c168501518253600182019150603f81600c1c168501518253600182019150603f8160061c168501518253600182019150603f8116850151825360018201915050611f56565b600389510660018114611fcb5760028114611fdb57611fe6565b613d3d60f01b6002830352611fe6565b603d60f81b60018303525b50505050508093505050505b919050565b60606000600667ffffffffffffffff8111156120165761201561318c565b5b6040519080825280601f01601f1916602001820160405280156120485781602001600182028036833780820191505090505b50905060005b60038110156121e4577f3031323334353637383961626364656600000000000000000000000000000000600f85836003811061208d5761208c613747565b5b1a60f81b60f81c1660ff16601081106120a9576120a8613747565b5b1a60f81b8260016002846120bd9190614743565b6120c791906143de565b815181106120d8576120d7613747565b5b60200101907effffffffffffffffffffffffffffffffffffffffffffffffffffffffffffff1916908160001a9053507f3031323334353637383961626364656600000000000000000000000000000000600f600486846003811061213f5761213e613747565b5b1a60f81b7effffffffffffffffffffffffffffffffffffffffffffffffffffffffffffff1916901c60f81c1660ff166010811061217f5761217e613747565b5b1a60f81b826002836121919190614743565b815181106121a2576121a1613747565b5b60200101907effffffffffffffffffffffffffffffffffffffffffffffffffffffffffffff1916908160001a90535080806121dc90614532565b91505061204e565b5080915050919050565b6060600060028360026122019190614743565b61220b91906143de565b67ffffffffffffffff8111156122245761222361318c565b5b6040519080825280601f01601f1916602001820160405280156122565781602001600182028036833780820191505090505b5090507f30000000000000000000000000000000000000000000000000000000000000008160008151811061228e5761228d613747565b5b60200101907effffffffffffffffffffffffffffffffffffffffffffffffffffffffffffff1916908160001a9053507f7800000000000000000000000000000000000000000000000000000000000000816001815181106122f2576122f1613747565b5b60200101907effffffffffffffffffffffffffffffffffffffffffffffffffffffffffffff1916908160001a905350600060018460026123329190614743565b61233c91906143de565b90505b60018111156123dc577f3031323334353637383961626364656600000000000000000000000000000000600f86166010811061237e5761237d613747565b5b1a60f81b82828151811061239557612394613747565b5b60200101907effffffffffffffffffffffffffffffffffffffffffffffffffffffffffffff1916908160001a905350600485901c9450806123d59061479d565b905061233f565b508091505092915050565b6001816000016000828254019250508190555050565b600081600001549050919050565b600073ffffffffffffffffffffffffffffffffffffffff168273ffffffffffffffffffffffffffffffffffffffff16141561247b576040517f08c379a000000000000000000000000000000000000000000000000000000000815260040161247290614813565b60405180910390fd5b612484816115f0565b156124c4576040517f08c379a00000000000000000000000000000000000000000000000000000000081526004016124bb9061487f565b60405180910390fd5b6124d060008383612643565b6001600360008473ffffffffffffffffffffffffffffffffffffffff1673ffffffffffffffffffffffffffffffffffffffff168152602001908152602001600020600082825461252091906143de565b92505081905550816002600083815260200190815260200160002060006101000a81548173ffffffffffffffffffffffffffffffffffffffff021916908373ffffffffffffffffffffffffffffffffffffffff160217905550808273ffffffffffffffffffffffffffffffffffffffff16600073ffffffffffffffffffffffffffffffffffffffff167fddf252ad1be2c89b69c2b068fc378daa952ba7f163c4a11628f55a4df523b3ef60405160405180910390a45050565b60007f01ffc9a7000000000000000000000000000000000000000000000000000000007bffffffffffffffffffffffffffffffffffffffffffffffffffffffff1916827bffffffffffffffffffffffffffffffffffffffffffffffffffffffff1916149050919050565b61264e838383612a43565b600073ffffffffffffffffffffffffffffffffffffffff168373ffffffffffffffffffffffffffffffffffffffff1614156126915761268c81612a48565b6126d0565b8173ffffffffffffffffffffffffffffffffffffffff168373ffffffffffffffffffffffffffffffffffffffff16146126cf576126ce8382612a91565b5b5b600073ffffffffffffffffffffffffffffffffffffffff168273ffffffffffffffffffffffffffffffffffffffff1614156127135761270e81612bfe565b612752565b8273ffffffffffffffffffffffffffffffffffffffff168273ffffffffffffffffffffffffffffffffffffffff1614612751576127508282612ccf565b5b5b505050565b60006127788473ffffffffffffffffffffffffffffffffffffffff16612d4e565b156128e1578373ffffffffffffffffffffffffffffffffffffffff1663150b7a026127a161165c565b8786866040518563ffffffff1660e01b81526004016127c394939291906148f4565b602060405180830381600087803b1580156127dd57600080fd5b505af192505050801561280e57506040513d601f19601f8201168201806040525081019061280b9190614955565b60015b612891573d806000811461283e576040519150601f19603f3d011682016040523d82523d6000602084013e612843565b606091505b50600081511415612889576040517f08c379a000000000000000000000000000000000000000000000000000000000815260040161288090614512565b60405180910390fd5b805181602001fd5b63150b7a0260e01b7bffffffffffffffffffffffffffffffffffffffffffffffffffffffff1916817bffffffffffffffffffffffffffffffffffffffffffffffffffffffff1916149150506128e6565b600190505b949350505050565b6060600061293b600c600085815260200190815260200160002060009054906101000a900460e81b7cffffffffffffffffffffffffffffffffffffffffffffffffffffffffff1916611ff7565b612984600e600086815260200190815260200160002060009054906101000a900460e81b7cffffffffffffffffffffffffffffffffffffffffffffffffffffffffff1916611ff7565b6129cd600d600087815260200190815260200160002060009054906101000a900460e81b7cffffffffffffffffffffffffffffffffffffffffffffffffffffffffff1916611ff7565b612a16600d600088815260200190815260200160002060009054906101000a900460e81b7cffffffffffffffffffffffffffffffffffffffffffffffffffffffffff1916611ff7565b604051602001612a299493929190615ae3565b604051602081830303815290604052905080915050919050565b505050565b6008805490506009600083815260200190815260200160002081905550600881908060018154018082558091505060019003906000526020600020016000909190919091505550565b60006001612a9e846109f1565b612aa89190614050565b9050600060076000848152602001908152602001600020549050818114612b8d576000600660008673ffffffffffffffffffffffffffffffffffffffff1673ffffffffffffffffffffffffffffffffffffffff168152602001908152602001600020600084815260200190815260200160002054905080600660008773ffffffffffffffffffffffffffffffffffffffff1673ffffffffffffffffffffffffffffffffffffffff168152602001908152602001600020600084815260200190815260200160002081905550816007600083815260200190815260200160002081905550505b6007600084815260200190815260200160002060009055600660008573ffffffffffffffffffffffffffffffffffffffff1673ffffffffffffffffffffffffffffffffffffffff16815260200190815260200160002060008381526020019081526020016000206000905550505050565b60006001600880549050612c129190614050565b9050600060096000848152602001908152602001600020549050600060088381548110612c4257612c41613747565b5b906000526020600020015490508060088381548110612c6457612c63613747565b5b906000526020600020018190555081600960008381526020019081526020016000208190555060096000858152602001908152602001600020600090556008805480612cb357612cb2615be7565b5b6001900381819060005260206000200160009055905550505050565b6000612cda836109f1565b905081600660008573ffffffffffffffffffffffffffffffffffffffff1673ffffffffffffffffffffffffffffffffffffffff168152602001908152602001600020600083815260200190815260200160002081905550806007600084815260200190815260200160002081905550505050565b600080823b905060008111915050919050565b6000604051905090565b600080fd5b600080fd5b60007fffffffff0000000000000000000000000000000000000000000000000000000082169050919050565b612daa81612d75565b8114612db557600080fd5b50565b600081359050612dc781612da1565b92915050565b600060208284031215612de357612de2612d6b565b5b6000612df184828501612db8565b91505092915050565b60008115159050919050565b612e0f81612dfa565b82525050565b6000602082019050612e2a6000830184612e06565b92915050565b600081519050919050565b600082825260208201905092915050565b60005b83811015612e6a578082015181840152602081019050612e4f565b83811115612e79576000848401525b50505050565b6000601f19601f8301169050919050565b6000612e9b82612e30565b612ea58185612e3b565b9350612eb5818560208601612e4c565b612ebe81612e7f565b840191505092915050565b60006020820190508181036000830152612ee38184612e90565b905092915050565b6000819050919050565b612efe81612eeb565b8114612f0957600080fd5b50565b600081359050612f1b81612ef5565b92915050565b600060208284031215612f3757612f36612d6b565b5b6000612f4584828501612f0c565b91505092915050565b600073ffffffffffffffffffffffffffffffffffffffff82169050919050565b6000612f7982612f4e565b9050919050565b612f8981612f6e565b82525050565b6000602082019050612fa46000830184612f80565b92915050565b612fb381612f6e565b8114612fbe57600080fd5b50565b600081359050612fd081612faa565b92915050565b60008060408385031215612fed57612fec612d6b565b5b6000612ffb85828601612fc1565b925050602061300c85828601612f0c565b9150509250929050565b61301f81612eeb565b82525050565b600060208201905061303a6000830184613016565b92915050565b60008060006060848603121561305957613058612d6b565b5b600061306786828701612fc1565b935050602061307886828701612fc1565b925050604061308986828701612f0c565b9150509250925092565b60007fffffff000000000000000000000000000000000000000000000000000000000082169050919050565b6130c881613093565b82525050565b60006020820190506130e360008301846130bf565b92915050565b6000602082840312156130ff576130fe612d6b565b5b600061310d84828501612fc1565b91505092915050565b61311f81612dfa565b811461312a57600080fd5b50565b60008135905061313c81613116565b92915050565b6000806040838503121561315957613158612d6b565b5b600061316785828601612fc1565b92505060206131788582860161312d565b9150509250929050565b600080fd5b600080fd5b7f4e487b7100000000000000000000000000000000000000000000000000000000600052604160045260246000fd5b6131c482612e7f565b810181811067ffffffffffffffff821117156131e3576131e261318c565b5b80604052505050565b60006131f6612d61565b905061320282826131bb565b919050565b600067ffffffffffffffff8211156132225761322161318c565b5b61322b82612e7f565b9050602081019050919050565b82818337600083830152505050565b600061325a61325584613207565b6131ec565b90508281526020810184848401111561327657613275613187565b5b613281848285613238565b509392505050565b600082601f83011261329e5761329d613182565b5b81356132ae848260208601613247565b91505092915050565b600080600080608085870312156132d1576132d0612d6b565b5b60006132df87828801612fc1565b94505060206132f087828801612fc1565b935050604061330187828801612f0c565b925050606085013567ffffffffffffffff81111561332257613321612d70565b5b61332e87828801613289565b91505092959194509250565b6000806040838503121561335157613350612d6b565b5b600061335f85828601612fc1565b925050602061337085828601612fc1565b9150509250929050565b7f4e487b7100000000000000000000000000000000000000000000000000000000600052602260045260246000fd5b600060028204905060018216806133c157607f821691505b602082108114156133d5576133d461337a565b5b50919050565b7f4552433732313a20617070726f76656420717565727920666f72206e6f6e657860008201527f697374656e7420746f6b656e0000000000000000000000000000000000000000602082015250565b6000613437602c83612e3b565b9150613442826133db565b604082019050919050565b600060208201905081810360008301526134668161342a565b9050919050565b7f4552433732313a20617070726f76616c20746f2063757272656e74206f776e6560008201527f7200000000000000000000000000000000000000000000000000000000000000602082015250565b60006134c9602183612e3b565b91506134d48261346d565b604082019050919050565b600060208201905081810360008301526134f8816134bc565b9050919050565b7f4552433732313a20617070726f76652063616c6c6572206973206e6f74206f7760008201527f6e6572206e6f7220617070726f76656420666f7220616c6c0000000000000000602082015250565b600061355b603883612e3b565b9150613566826134ff565b604082019050919050565b6000602082019050818103600083015261358a8161354e565b9050919050565b7f4552433732313a207472616e736665722063616c6c6572206973206e6f74206f60008201527f776e6572206e6f7220617070726f766564000000000000000000000000000000602082015250565b60006135ed603183612e3b565b91506135f882613591565b604082019050919050565b6000602082019050818103600083015261361c816135e0565b9050919050565b7f455243373231456e756d657261626c653a206f776e657220696e646578206f7560008201527f74206f6620626f756e6473000000000000000000000000000000000000000000602082015250565b600061367f602b83612e3b565b915061368a82613623565b604082019050919050565b600060208201905081810360008301526136ae81613672565b9050919050565b7f455243373231456e756d657261626c653a20676c6f62616c20696e646578206f60008201527f7574206f6620626f756e64730000000000000000000000000000000000000000602082015250565b6000613711602c83612e3b565b915061371c826136b5565b604082019050919050565b6000602082019050818103600083015261374081613704565b9050919050565b7f4e487b7100000000000000000000000000000000000000000000000000000000600052603260045260246000fd5b7f4552433732313a206f776e657220717565727920666f72206e6f6e657869737460008201527f656e7420746f6b656e0000000000000000000000000000000000000000000000602082015250565b60006137d2602983612e3b565b91506137dd82613776565b604082019050919050565b60006020820190508181036000830152613801816137c5565b9050919050565b7f4552433732313a2062616c616e636520717565727920666f7220746865207a6560008201527f726f206164647265737300000000000000000000000000000000000000000000602082015250565b6000613864602a83612e3b565b915061386f82613808565b604082019050919050565b6000602082019050818103600083015261389381613857565b9050919050565b7f4f776e61626c653a2063616c6c6572206973206e6f7420746865206f776e6572600082015250565b60006138d0602083612e3b565b91506138db8261389a565b602082019050919050565b600060208201905081810360008301526138ff816138c3565b9050919050565b7f6e6f742065786973740000000000000000000000000000000000000000000000600082015250565b600061393c600983612e3b565b915061394782613906565b602082019050919050565b6000602082019050818103600083015261396b8161392f565b9050919050565b600081905092915050565b7f476f72696c6c6120230000000000000000000000000000000000000000000000600082015250565b60006139b3600983613972565b91506139be8261397d565b600982019050919050565b60006139d482612e30565b6139de8185613972565b93506139ee818560208601612e4c565b80840191505092915050565b6000613a05826139a6565b9150613a1182846139c9565b915081905092915050565b7f476f72696c6c612047616e67202824474f472920697320612067656e6572617460008201527f6976652061727420636f6c6c65637461626c65732c2072616e646f6d6c79206760208201527f656e657261746564207769746820646966666572656e7420747261697473206c60408201527f696b6520636f6c6f722c2065796520616e64206261636b67726f7564732e204560608201527f61636820476f72696c6c61206973206120756e697175652c206e6f6e2d66756e60808201527f6769626c6520746f6b656e20284e465429206f6e20746865204574686572657560a08201527f6d20626c6f636b636861696e2e0000000000000000000000000000000000000060c082015250565b6000613b3660cd83613972565b9150613b4182613a1c565b60cd82019050919050565b6000613b5782613b29565b9150819050919050565b7f7b226e616d65223a220000000000000000000000000000000000000000000000600082015250565b6000613b97600983613972565b9150613ba282613b61565b600982019050919050565b7f222c20226465736372697074696f6e223a220000000000000000000000000000600082015250565b6000613be3601283613972565b9150613bee82613bad565b601282019050919050565b7f222c202261747472696275746573223a205b7b2274726169745f74797065223a60008201527f2022657965222c202276616c7565223a20222300000000000000000000000000602082015250565b6000613c55603383613972565b9150613c6082613bf9565b603382019050919050565b7f227d2c7b2274726169745f74797065223a20226261636b67726f7564222c202260008201527f76616c7565223a20222300000000000000000000000000000000000000000000602082015250565b6000613cc7602a83613972565b9150613cd282613c6b565b602a82019050919050565b7f227d2c7b2274726169745f74797065223a2022636f6c6f72222c202276616c7560008201527f65223a2022230000000000000000000000000000000000000000000000000000602082015250565b6000613d39602683613972565b9150613d4482613cdd565b602682019050919050565b7f227d5d2c20226f776e6572223a22000000000000000000000000000000000000600082015250565b6000613d85600e83613972565b9150613d9082613d4f565b600e82019050919050565b7f222c2022696d616765223a202200000000000000000000000000000000000000600082015250565b6000613dd1600d83613972565b9150613ddc82613d9b565b600d82019050919050565b7f646174613a696d6167652f7376672b786d6c3b6261736536342c000000000000600082015250565b6000613e1d601a83613972565b9150613e2882613de7565b601a82019050919050565b7f227d000000000000000000000000000000000000000000000000000000000000600082015250565b6000613e69600283613972565b9150613e7482613e33565b600282019050919050565b6000613e8a82613b8a565b9150613e96828a6139c9565b9150613ea182613bd6565b9150613ead82896139c9565b9150613eb882613c48565b9150613ec482886139c9565b9150613ecf82613cba565b9150613edb82876139c9565b9150613ee682613d2c565b9150613ef282866139c9565b9150613efd82613d78565b9150613f0982856139c9565b9150613f1482613dc4565b9150613f1f82613e10565b9150613f2b82846139c9565b9150613f3682613e5c565b915081905098975050505050505050565b7f646174613a6170706c69636174696f6e2f6a736f6e3b6261736536342c000000600082015250565b6000613f7d601d83613972565b9150613f8882613f47565b601d82019050919050565b6000613f9e82613f70565b9150613faa82846139c9565b915081905092915050565b7f444f4e45204d494e54494e470000000000000000000000000000000000000000600082015250565b6000613feb600c83612e3b565b9150613ff682613fb5565b602082019050919050565b6000602082019050818103600083015261401a81613fde565b9050919050565b7f4e487b7100000000000000000000000000000000000000000000000000000000600052601160045260246000fd5b600061405b82612eeb565b915061406683612eeb565b92508282101561407957614078614021565b5b828203905092915050565b6000819050919050565b6000819050919050565b6140a96140a482614084565b61408e565b82525050565b60008160601b9050919050565b60006140c7826140af565b9050919050565b60006140d9826140bc565b9050919050565b6140f16140ec82612f6e565b6140ce565b82525050565b6000819050919050565b61411261410d82612eeb565b6140f7565b82525050565b60006141248287614098565b60208201915061413482866140e0565b60148201915061414482856140e0565b6014820191506141548284614101565b60208201915081905095945050505050565b600060408201905061417b6000830185613016565b818103602083015261418d8184612e90565b90509392505050565b7f4f776e61626c653a206e6577206f776e657220697320746865207a65726f206160008201527f6464726573730000000000000000000000000000000000000000000000000000602082015250565b60006141f2602683612e3b565b91506141fd82614196565b604082019050919050565b60006020820190508181036000830152614221816141e5565b9050919050565b7f4552433732313a206f70657261746f7220717565727920666f72206e6f6e657860008201527f697374656e7420746f6b656e0000000000000000000000000000000000000000602082015250565b6000614284602c83612e3b565b915061428f82614228565b604082019050919050565b600060208201905081810360008301526142b381614277565b9050919050565b7f4552433732313a207472616e73666572206f6620746f6b656e2074686174206960008201527f73206e6f74206f776e0000000000000000000000000000000000000000000000602082015250565b6000614316602983612e3b565b9150614321826142ba565b604082019050919050565b6000602082019050818103600083015261434581614309565b9050919050565b7f4552433732313a207472616e7366657220746f20746865207a65726f2061646460008201527f7265737300000000000000000000000000000000000000000000000000000000602082015250565b60006143a8602483612e3b565b91506143b38261434c565b604082019050919050565b600060208201905081810360008301526143d78161439b565b9050919050565b60006143e982612eeb565b91506143f483612eeb565b9250827fffffffffffffffffffffffffffffffffffffffffffffffffffffffffffffffff0382111561442957614428614021565b5b828201905092915050565b7f4552433732313a20617070726f766520746f2063616c6c657200000000000000600082015250565b600061446a601983612e3b565b915061447582614434565b602082019050919050565b600060208201905081810360008301526144998161445d565b9050919050565b7f4552433732313a207472616e7366657220746f206e6f6e20455243373231526560008201527f63656976657220696d706c656d656e7465720000000000000000000000000000602082015250565b60006144fc603283612e3b565b9150614507826144a0565b604082019050919050565b6000602082019050818103600083015261452b816144ef565b9050919050565b600061453d82612eeb565b91507fffffffffffffffffffffffffffffffffffffffffffffffffffffffffffffffff8214156145705761456f614021565b5b600182019050919050565b7f4e487b7100000000000000000000000000000000000000000000000000000000600052601260045260246000fd5b60006145b582612eeb565b91506145c083612eeb565b9250826145d0576145cf61457b565b5b828204905092915050565b60006145e682612eeb565b91506145f183612eeb565b9250826146015761460061457b565b5b828206905092915050565b7f3c7376672077696474683d2235303022206865696768743d223530302220766960008201527f6577426f783d223020302032303020323030222066696c6c3d226e6f6e65222060208201527f786d6c6e733d22687474703a2f2f7777772e77332e6f72672f323030302f737660408201527f67223e0000000000000000000000000000000000000000000000000000000000606082015250565b60006146b4606383613972565b91506146bf8261460c565b606382019050919050565b7f3c2f7376673e0000000000000000000000000000000000000000000000000000600082015250565b6000614700600683613972565b915061470b826146ca565b600682019050919050565b6000614721826146a7565b915061472d82846139c9565b9150614738826146f3565b915081905092915050565b600061474e82612eeb565b915061475983612eeb565b9250817fffffffffffffffffffffffffffffffffffffffffffffffffffffffffffffffff048311821515161561479257614791614021565b5b828202905092915050565b60006147a882612eeb565b915060008214156147bc576147bb614021565b5b600182039050919050565b7f4552433732313a206d696e7420746f20746865207a65726f2061646472657373600082015250565b60006147fd602083612e3b565b9150614808826147c7565b602082019050919050565b6000602082019050818103600083015261482c816147f0565b9050919050565b7f4552433732313a20746f6b656e20616c7265616479206d696e74656400000000600082015250565b6000614869601c83612e3b565b915061487482614833565b602082019050919050565b600060208201905081810360008301526148988161485c565b9050919050565b600081519050919050565b600082825260208201905092915050565b60006148c68261489f565b6148d081856148aa565b93506148e0818560208601612e4c565b6148e981612e7f565b840191505092915050565b60006080820190506149096000830187612f80565b6149166020830186612f80565b6149236040830185613016565b818103606083015261493581846148bb565b905095945050505050565b60008151905061494f81612da1565b92915050565b60006020828403121561496b5761496a612d6b565b5b600061497984828501614940565b91505092915050565b7f3c726563742077696474683d2235303022206865696768743d2235303022206660008201527f696c6c3d22230000000000000000000000000000000000000000000000000000602082015250565b60006149de602683613972565b91506149e982614982565b602682019050919050565b7f222f3e3c636972636c652063783d223531222063793d223130312220723d223160008201527f36222066696c6c3d2223433443344334222f3e00000000000000000000000000602082015250565b6000614a50603383613972565b9150614a5b826149f4565b603382019050919050565b7f3c67207374796c653d226d69782d626c656e642d6d6f64653a6d756c7469706c60008201527f79223e3c636972636c652063783d223531222063793d223130312220723d223160208201527f32222066696c6c3d2223433443344334222f3e3c2f673e000000000000000000604082015250565b6000614ae8605783613972565b9150614af382614a66565b605782019050919050565b7f3c636972636c652063783d22313439222063793d223130312220723d2231362260008201527f2066696c6c3d2223433443344334222f3e000000000000000000000000000000602082015250565b6000614b5a603183613972565b9150614b6582614afe565b603182019050919050565b7f3c67207374796c653d226d69782d626c656e642d6d6f64653a6d756c7469706c60008201527f79223e3c636972636c652063783d22313439222063793d223130312220723d2260208201527f3132222066696c6c3d2223433443344334222f3e3c2f673e0000000000000000604082015250565b6000614bf2605883613972565b9150614bfd82614b70565b605882019050919050565b7f3c7061746820643d224d39372e383432372034302e303631324339372e38303060008201527f312033372e3836362039392e333732342033362e30343832203130312e33353560208201527f2033362e30303039433130332e3333372033352e39353337203130342e39373960408201527f2033372e36393439203130352e3032312033392e383930314c3130352e30383260608201527f2034332e303035334c3130362e3033352034302e31303435433130362e37313360808201527f2033382e30343132203130382e3737342033362e39373734203131302e36333760a08201527f2033372e37323834433131322e352033382e34373933203131332e343631203460c08201527f302e37363037203131322e3738332034322e3832344c3130392e35303820353260e08201527f2e37383632433130382e38332035342e38343935203130362e37372035352e396101008201527f313333203130342e3930372035352e31363233433130342e33312035342e39326101208201527f3139203130332e3830362035342e35323436203130332e3431392035342e30326101408201527f3738433130322e3931362035342e33343636203130322e3333362035342e35336101608201527f3437203130312e3731352035342e35343935433130312e3230372035342e35366101808201527f3136203130302e3732312035342e34353631203130302e3237392035342e32356101a08201527f35364339392e393438312035352e333736392039392e3137322035362e3332346101c08201527f342039382e303933342035362e373539324339362e323330322035372e3531306101e08201527f312039342e31372035362e343436332039332e343931392035342e3338334c396102008201527f302e323137352034342e343230384338392e353339332034322e3335373520396102208201527f302e352034302e303736312039322e333633322033392e333235324339342e326102408201527f3236342033382e353734322039362e323836362033392e3633382039362e39366102608201527f34372034312e373031334c39372e393331382034342e363433374c39372e38346102808201527f32372034302e303631325a222066696c6c3d2223333933393339222f3e0000006102a082015250565b6000614f6b6102bd83613972565b9150614f7682614c08565b6102bd82019050919050565b7f3c7061746820643d224d35332e333039392039332e313937324335322e30353360008201527f332036382e303635322037322e303931352034372039372e323535203437483160208201527f30342e323831433132392e363138203437203134392e3731392036382e33343360408201527f39203134382e3230322039332e363335324c3134382039374c3134382e39303960608201527f203131372e303032433135302e303438203134322e303631203133302e30333960808201527f20313633203130342e393535203136334839362e363938324337312e3734343560a08201527f203136332035312e37383532203134322e32372035322e37323938203131372e60c08201527f3333354c35332e352039374c35332e333039392039332e313937325a2220666960e08201527f6c6c3d2223333933393339222f3e00000000000000000000000000000000000061010082015250565b60006150ea61010e83613972565b91506150f582614f82565b61010e82019050919050565b7f3c706174682066696c6c2d72756c653d226576656e6f64642220636c69702d7260008201527f756c653d226576656e6f64642220643d224d37322e30393431203130342e353860208201527f324337322e36323832203130342e3131352037322e36333739203130332e323760408201527f342037322e31323338203130322e3738354336382e333531332039392e31393260608201527f332036362039342e313230372036362038382e354336362037372e363037382060808201527f37342e38332036382e373737382038352e373232322036382e3737373843393160a08201527f2e363430392036382e373737382039362e393530362037312e3338352031303060c08201527f2e3536362037352e35313334433130312e3035342037362e303731372031303160e08201527f2e3934362037362e30373137203130322e3433342037352e35313334433130366101008201527f2e3034392037312e333835203131312e3335392036382e37373738203131372e6101208201527f3237382036382e37373738433132382e31372036382e373737382031333720376101408201527f372e36303738203133372038382e35433133372039342e31323739203133342e6101608201527f3634332039392e32303532203133302e383632203130322e373938433133302e6101808201527f333437203130332e323838203133302e333536203130342e313239203133302e6101a08201527f3839203130342e353937433133362e343734203130392e3438352031343020316101c08201527f31362e36363620313430203132342e363743313430203133372e3334372031336101e08201527f312e313032203134382e353537203131382e35303720313530433130362e37326102008201527f32203135312e33352039362e33333134203135312e3332362038342e353530336102208201527f203134392e3937314337312e39333836203134382e353139203633203133372e6102408201527f333134203633203132342e363139433633203131362e3632392036362e3532306102608201527f31203130392e3436312037322e30393431203130342e3538325a222066696c6c6102808201527f3d222300000000000000000000000000000000000000000000000000000000006102a082015250565b60006154646102a383613972565b915061546f82615101565b6102a382019050919050565b7f222f3e3c706174682066696c6c2d72756c653d226576656e6f64642220636c6960008201527f702d72756c653d226576656e6f64642220643d224d3133392e3831203132312e60208201527f343732433133392e393336203132322e353220313430203132332e353838203160408201527f3430203132342e363743313430203133372e333438203133312e31303220313460608201527f382e353537203131382e35303720313530433130362e373232203135312e333560808201527f2039362e33333134203135312e3332362038342e35353033203134392e39373160a08201527f4337312e39333836203134382e353139203633203133372e333134203633203160c08201527f32342e363139433633203132342e3036312036332e30313732203132332e353060e08201527f372036332e303531203132322e3935374337302e38333933203131322e3232316101008201527f2038352e33363536203130352031303220313035433131372e383535203130356101208201527f203133312e373935203131312e3536203133392e3831203132312e3437325a226101408201527f2066696c6c3d2223433443344334222f3e00000000000000000000000000000061016082015250565b600061565861017183613972565b91506156638261547b565b61017182019050919050565b7f3c636972636c652063783d223833222063793d2238352220723d22313122206660008201527f696c6c3d227768697465222f3e00000000000000000000000000000000000000602082015250565b60006156cb602d83613972565b91506156d68261566f565b602d82019050919050565b7f3c636972636c652063783d223833222063793d2238352220723d22372e33333360008201527f3333222066696c6c3d2223000000000000000000000000000000000000000000602082015250565b600061573d602b83613972565b9150615748826156e1565b602b82019050919050565b7f222f3e3c636972636c652063783d2238352e3735222063793d2238322e38363160008201527f322220723d22322e3735222066696c6c3d227768697465222f3e000000000000602082015250565b60006157af603a83613972565b91506157ba82615753565b603a82019050919050565b7f3c636972636c652063783d22313139222063793d2238352220723d223131222060008201527f66696c6c3d227768697465222f3e000000000000000000000000000000000000602082015250565b6000615821602e83613972565b915061582c826157c5565b602e82019050919050565b7f3c636972636c652063783d22313139222063793d2238352220723d22372e333360008201527f333333222066696c6c3d22230000000000000000000000000000000000000000602082015250565b6000615893602c83613972565b915061589e82615837565b602c82019050919050565b7f222f3e3c636972636c652063783d223132312e3735222063793d2238322e383660008201527f31322220723d22322e3735222066696c6c3d227768697465222f3e0000000000602082015250565b6000615905603b83613972565b9150615910826158a9565b603b82019050919050565b7f3c656c6c697073652063783d223837222063793d22313139222072783d22332260008201527f2072793d2234222066696c6c3d2223333933393339222f3e0000000000000000602082015250565b6000615977603883613972565b91506159828261591b565b603882019050919050565b7f3c656c6c697073652063783d22313136222063793d22313139222072783d223360008201527f222072793d2234222066696c6c3d2223333933393339222f3e00000000000000602082015250565b60006159e9603983613972565b91506159f48261598d565b603982019050919050565b7f3c7061746820643d224d3838203133324339322e37323733203134302031303960008201527f2e35333520313430203131342031333222207374726f6b653d2223333933393360208201527f3922207374726f6b652d77696474683d223222207374726f6b652d6c696e656360408201527f61703d22726f756e6422207374726f6b652d6c696e656a6f696e3d22726f756e60608201527f64222f3e00000000000000000000000000000000000000000000000000000000608082015250565b6000615acd608483613972565b9150615ad8826159ff565b608482019050919050565b6000615aee826149d1565b9150615afa82876139c9565b9150615b0582614a43565b9150615b1082614adb565b9150615b1b82614b4d565b9150615b2682614be5565b9150615b3182614f5d565b9150615b3c826150dc565b9150615b4782615456565b9150615b5382866139c9565b9150615b5e8261564a565b9150615b69826156be565b9150615b7482615730565b9150615b8082856139c9565b9150615b8b826157a2565b9150615b9682615814565b9150615ba182615886565b9150615bad82846139c9565b9150615bb8826158f8565b9150615bc38261596a565b9150615bce826159dc565b9150615bd982615ac0565b915081905095945050505050565b7f4e487b7100000000000000000000000000000000000000000000000000000000600052603160045260246000fdfe4142434445464748494a4b4c4d4e4f505152535455565758595a6162636465666768696a6b6c6d6e6f707172737475767778797a303132333435363738392b2fa2646970667358221220994fe32b7257eb111a49925f09685279b799740f41f89c4660374f2e96c313ce64736f6c63430008090033",
  "linkReferences": {},
  "deployedLinkReferences": {}
}